{
  "contractName": "ERC165",
  "abi": [
    {
      "inputs": [],
      "stateMutability": "nonpayable",
      "type": "constructor"
    },
    {
      "inputs": [
        {
          "internalType": "bytes4",
          "name": "interfaceID",
          "type": "bytes4"
        }
      ],
      "name": "supportsInterface",
      "outputs": [
        {
          "internalType": "bool",
          "name": "",
          "type": "bool"
        }
      ],
      "stateMutability": "view",
      "type": "function"
    }
  ],
  "bytecode": "0x608060405234801561001057600080fd5b5061003a7f01ffc9a7a5cef8baa21ed3c5c0d7e23accb804b619e9333b597f47a0d84076e261003f565b6100f6565b6001600160e01b031980821690036100d15760405162461bcd60e51b8152602060048201526044602482018190527f4552433136353a2063616e6e6f7420726567697374657220616e20696e746572908201527f66616365207769746820746865206d616769632076616c7565203078666666666064820152633333333360e11b608482015260a40160405180910390fd5b6001600160e01b0319166000908152602081905260409020805460ff19166001179055565b60d0806101046000396000f3fe6080604052348015600f57600080fd5b506004361060285760003560e01c806301ffc9a714602d575b600080fd5b60576038366004606b565b6001600160e01b03191660009081526020819052604090205460ff1690565b604051901515815260200160405180910390f35b600060208284031215607c57600080fd5b81356001600160e01b031981168114609357600080fd5b939250505056fea264697066735822122058a9c2b7749f5893f3f81d84a76092288f94178b22cdb12cc553dd9229aff0ea64736f6c634300080e0033",
  "immutableReferences": {},
  "source": "// SPDX-License-Identifier: MIT\r\npragma solidity ^0.8.0;\r\n\r\nimport \"./interfaces/IERC165.sol\";\r\n\r\ncontract ERC165 is IERC165 {\r\n  mapping (bytes4=>bool) private _supportedInterfaces;\r\n  \r\n  constructor() {\r\n    _registerInterface(bytes4(keccak256('supportsInterface(bytes4)')));\r\n  }\r\n\r\n  function supportsInterface(bytes4 interfaceID) external override view returns (bool) {\r\n    return _supportedInterfaces[interfaceID];\r\n  }\r\n\r\n  function _registerInterface(bytes4 interfaceID) internal {\r\n    require(interfaceID != 0xffffffff, \"ERC165: cannot register an interface with the magic value 0xffffffff\");\r\n    _supportedInterfaces[interfaceID] = true;\r\n  }\r\n}",
  "sourcePath": "C:\\Users\\pc\\Desktop\\test\\nfts\\contracts\\ERC165.sol",
  "compiler": {
    "name": "solc",
    "version": "0.8.14+commit.80d49f37.Emscripten.clang"
  },
  "schemaVersion": "3.4.7",
  "updatedAt": "2022-06-01T11:33:40.086Z",
  "devdoc": {
    "kind": "dev",
    "methods": {
      "supportsInterface(bytes4)": {
        "details": "Interface identification is specified in ERC-165. This uses less than 30.000 gas.",
        "params": {
          "interfaceID": "The interface identifier, as specified in ERC-165"
        },
        "returns": {
          "_0": "`true` if the contract implements `interfaceID`"
        }
      }
    },
    "version": 1
  },
  "userdoc": {
    "kind": "user",
    "methods": {
      "supportsInterface(bytes4)": {
        "notice": "Query if a contract implements an interface"
      }
    },
    "version": 1
  }
}