{
  "contractName": "ERC721Enumerable",
  "abi": [
    {
      "anonymous": false,
      "inputs": [
        {
          "indexed": true,
          "internalType": "address",
          "name": "from",
          "type": "address"
        },
        {
          "indexed": true,
          "internalType": "address",
          "name": "to",
          "type": "address"
        },
        {
          "indexed": true,
          "internalType": "uint256",
          "name": "tokenId",
          "type": "uint256"
        }
      ],
      "name": "Transfer",
      "type": "event"
    },
    {
      "inputs": [
        {
          "internalType": "address",
          "name": "_owner",
          "type": "address"
        }
      ],
      "name": "balanceOf",
      "outputs": [
        {
          "internalType": "uint256",
          "name": "",
          "type": "uint256"
        }
      ],
      "stateMutability": "view",
      "type": "function"
    },
    {
      "inputs": [
        {
          "internalType": "uint256",
          "name": "_tokenId",
          "type": "uint256"
        }
      ],
      "name": "ownerOf",
      "outputs": [
        {
          "internalType": "address",
          "name": "",
          "type": "address"
        }
      ],
      "stateMutability": "view",
      "type": "function"
    },
    {
      "inputs": [],
      "name": "totalSupply",
      "outputs": [
        {
          "internalType": "uint256",
          "name": "",
          "type": "uint256"
        }
      ],
      "stateMutability": "view",
      "type": "function"
    }
  ],
  "bytecode": "0x608060405234801561001057600080fd5b5061021c806100206000396000f3fe608060405234801561001057600080fd5b50600436106100415760003560e01c806318160ddd146100465780636352211e1461005d57806370a0823114610088575b600080fd5b6002545b6040519081526020015b60405180910390f35b61007061006b36600461019d565b61009b565b6040516001600160a01b039091168152602001610054565b61004a6100963660046101b6565b61011e565b6000818152602081905260408120546001600160a01b0316806101185760405162461bcd60e51b815260206004820152602a60248201527f4552433732313a206f776e657220717565727920666f72206e6f6e2d657869736044820152693a32b73a103a37b5b2b760b11b60648201526084015b60405180910390fd5b92915050565b60006001600160a01b0382166101815760405162461bcd60e51b815260206004820152602260248201527f4552433732313a2062616c616e63654f66206f776e657220697320696e76616c6044820152611a5960f21b606482015260840161010f565b506001600160a01b031660009081526001602052604090205490565b6000602082840312156101af57600080fd5b5035919050565b6000602082840312156101c857600080fd5b81356001600160a01b03811681146101df57600080fd5b939250505056fea2646970667358221220f25c8f377c11ee138c195ebfd3fe16b8b574e9f61cb754b470e598a520cc274564736f6c634300080e0033",
  "immutableReferences": {},
  "source": "// SPDX-License-Identifier: MIT\r\npragma solidity ^0.8.0;\r\n\r\nimport './ERC721.sol';\r\n\r\ncontract ERC721Enumerable is ERC721 {\r\n\r\n  uint256[] private _allTokens;\r\n\r\n  // mapping from tokenId to position in _allTokens array\r\n  mapping(uint256 => uint256) private _allTokensIndex;\r\n\r\n  // mapping of owner to list of all owner token ids\r\n  mapping(address => uint256[]) private _ownedTokens;\r\n\r\n  // mapping from tokenId index of the owner tokens list\r\n  mapping(uint256 => uint256) private _ownedTokensIndex;\r\n\r\n  /// @notice Count NFTs tracked by this contract\r\n  /// @return A count of valid NFTs tracked by this contract, where each one of\r\n  ///  them has an assigned and queryable owner not equal to the zero address\r\n  function totalSupply() external view returns (uint256) {\r\n    return _allTokens.length;\r\n  }\r\n\r\n  function _mint(address to, uint256 tokenId) internal override(ERC721) {\r\n    super._mint(to, tokenId);\r\n    // 2 things! 1. add tokens to the owner\r\n    // B. all tokens to our totalsupply - to allTokens\r\n    _addTokensToAllTokenEnumeration(tokenId);\r\n    _addTokensToOwnerEnumeration(to, tokenId);\r\n  }\r\n\r\n  // add tokens to the _allTokens array and set the position of the tokens indexes\r\n  function _addTokensToAllTokenEnumeration(uint256 tokenId) private {\r\n    _allTokensIndex[tokenId] = _allTokens.length;\r\n    _allTokens.push(tokenId);\r\n  }\r\n  \r\n  function _addTokensToOwnerEnumeration(address to, uint256 tokenId) private {\r\n    // 1. add address and token id to the _ownedTokens\r\n    // 2. ownedTokensIndex tokenId setTo address of ownedTokens position  \r\n    _ownedTokens[to].push(tokenId);\r\n    _ownedTokensIndex[tokenId] = _ownedTokens[to].length;  \r\n  } \r\n}",
  "sourcePath": "C:\\Users\\pc\\Desktop\\test\\nfts\\contracts\\ERC721Enumerable.sol",
  "compiler": {
    "name": "solc",
    "version": "0.8.14+commit.80d49f37.Emscripten.clang"
  },
  "schemaVersion": "3.4.7",
  "updatedAt": "2022-05-31T10:55:12.217Z",
  "devdoc": {
    "kind": "dev",
    "methods": {
      "balanceOf(address)": {
        "details": "NFTs assigned to the zero address are considered invalid, and this  function throws for queries about the zero address.",
        "params": {
          "_owner": "An address for whom to query the balance"
        },
        "returns": {
          "_0": "The number of NFTs owned by `_owner`, possibly zero"
        }
      },
      "ownerOf(uint256)": {
        "details": "NFTs assigned to zero address are considered invalid, and queries  about them do throw.",
        "params": {
          "_tokenId": "The identifier for an NFT"
        },
        "returns": {
          "_0": "The address of the owner of the NFT"
        }
      },
      "totalSupply()": {
        "returns": {
          "_0": "A count of valid NFTs tracked by this contract, where each one of  them has an assigned and queryable owner not equal to the zero address"
        }
      }
    },
    "version": 1
  },
  "userdoc": {
    "kind": "user",
    "methods": {
      "balanceOf(address)": {
        "notice": "Count all NFTs assigned to an owner"
      },
      "ownerOf(uint256)": {
        "notice": "Find the owner of an NFT"
      },
      "totalSupply()": {
        "notice": "Count NFTs tracked by this contract"
      }
    },
    "version": 1
  }
}