{
  "contractName": "ERC721Metadata",
  "abi": [
    {
      "inputs": [
        {
          "internalType": "string",
          "name": "named",
          "type": "string"
        },
        {
          "internalType": "string",
          "name": "symbolified",
          "type": "string"
        }
      ],
      "stateMutability": "nonpayable",
      "type": "constructor"
    },
    {
      "inputs": [
        {
          "internalType": "bytes4",
          "name": "interfaceID",
          "type": "bytes4"
        }
      ],
      "name": "supportsInterface",
      "outputs": [
        {
          "internalType": "bool",
          "name": "",
          "type": "bool"
        }
      ],
      "stateMutability": "view",
      "type": "function"
    },
    {
      "inputs": [],
      "name": "name",
      "outputs": [
        {
          "internalType": "string",
          "name": "",
          "type": "string"
        }
      ],
      "stateMutability": "view",
      "type": "function"
    },
    {
      "inputs": [],
      "name": "symbol",
      "outputs": [
        {
          "internalType": "string",
          "name": "",
          "type": "string"
        }
      ],
      "stateMutability": "view",
      "type": "function"
    }
  ],
  "bytecode": "0x608060405234801561001057600080fd5b506040516105aa3803806105aa83398101604081905261002f916102c2565b6100587f01ffc9a7a5cef8baa21ed3c5c0d7e23accb804b619e9333b597f47a0d84076e26100b0565b6100817f6c5b7360b116f8fd1d2a1ccb905de5c6a9e91e31b88b8db3cd997e184f357e9f6100b0565b8151610094906001906020850190610167565b5080516100a8906002906020840190610167565b50505061035f565b6001600160e01b031980821690036101425760405162461bcd60e51b8152602060048201526044602482018190527f4552433136353a2063616e6e6f7420726567697374657220616e20696e746572908201527f66616365207769746820746865206d616769632076616c7565203078666666666064820152633333333360e11b608482015260a40160405180910390fd5b6001600160e01b0319166000908152602081905260409020805460ff19166001179055565b82805461017390610325565b90600052602060002090601f01602090048101928261019557600085556101db565b82601f106101ae57805160ff19168380011785556101db565b828001600101855582156101db579182015b828111156101db5782518255916020019190600101906101c0565b506101e79291506101eb565b5090565b5b808211156101e757600081556001016101ec565b634e487b7160e01b600052604160045260246000fd5b600082601f83011261022757600080fd5b81516001600160401b038082111561024157610241610200565b604051601f8301601f19908116603f0116810190828211818310171561026957610269610200565b8160405283815260209250868385880101111561028557600080fd5b600091505b838210156102a7578582018301518183018401529082019061028a565b838211156102b85760008385830101525b9695505050505050565b600080604083850312156102d557600080fd5b82516001600160401b03808211156102ec57600080fd5b6102f886838701610216565b9350602085015191508082111561030e57600080fd5b5061031b85828601610216565b9150509250929050565b600181811c9082168061033957607f821691505b60208210810361035957634e487b7160e01b600052602260045260246000fd5b50919050565b61023c8061036e6000396000f3fe608060405234801561001057600080fd5b50600436106100415760003560e01c806301ffc9a71461004657806306fdde031461008857806395d89b411461009d575b600080fd5b610073610054366004610146565b6001600160e01b03191660009081526020819052604090205460ff1690565b60405190151581526020015b60405180910390f35b6100906100a5565b60405161007f9190610177565b610090610137565b6060600180546100b4906101cc565b80601f01602080910402602001604051908101604052809291908181526020018280546100e0906101cc565b801561012d5780601f106101025761010080835404028352916020019161012d565b820191906000526020600020905b81548152906001019060200180831161011057829003601f168201915b5050505050905090565b6060600280546100b4906101cc565b60006020828403121561015857600080fd5b81356001600160e01b03198116811461017057600080fd5b9392505050565b600060208083528351808285015260005b818110156101a457858101830151858201604001528201610188565b818111156101b6576000604083870101525b50601f01601f1916929092016040019392505050565b600181811c908216806101e057607f821691505b60208210810361020057634e487b7160e01b600052602260045260246000fd5b5091905056fea26469706673582212206bd87200e1c187d3820748b2835f8932b3bd8143e8d82489968b82bf9b037bd364736f6c634300080e0033",
  "immutableReferences": {},
  "source": "// SPDX-License-Identifier: MIT\r\npragma solidity ^0.8.0;\r\n\r\nimport \"./interfaces/IERC721Metadata.sol\";\r\nimport \"./ERC165.sol\";\r\n\r\ncontract ERC721Metadata is IERC721Metadata, ERC165 {\r\n  string private _name;\r\n  string private _symbol;\r\n\r\n  constructor(string memory named, string memory symbolified) {\r\n    _registerInterface(\r\n\t\t\tbytes4(\r\n\t\t\t\tkeccak256(\"name(bytes4)\")^\r\n\t\t\t\tkeccak256(\"symbol(bytes4)\")\r\n      )\r\n\t\t);\r\n    _name = named;\r\n    _symbol = symbolified;\r\n  }\r\n\r\n  function name() external view returns (string memory) {\r\n    return _name;\r\n  }\r\n\r\n  function symbol() external view returns (string memory) {\r\n    return _symbol;\r\n  }\r\n}",
  "sourcePath": "C:\\Users\\pc\\Desktop\\test\\nfts\\contracts\\ERC721Metadata.sol",
  "compiler": {
    "name": "solc",
    "version": "0.8.14+commit.80d49f37.Emscripten.clang"
  },
  "schemaVersion": "3.4.7",
  "updatedAt": "2022-06-01T12:12:19.985Z",
  "devdoc": {
    "kind": "dev",
    "methods": {
      "supportsInterface(bytes4)": {
        "details": "Interface identification is specified in ERC-165. This uses less than 30.000 gas.",
        "params": {
          "interfaceID": "The interface identifier, as specified in ERC-165"
        },
        "returns": {
          "_0": "`true` if the contract implements `interfaceID`"
        }
      }
    },
    "version": 1
  },
  "userdoc": {
    "kind": "user",
    "methods": {
      "name()": {
        "notice": "A descriptive name for a collection of NFTs in this contract"
      },
      "supportsInterface(bytes4)": {
        "notice": "Query if a contract implements an interface"
      },
      "symbol()": {
        "notice": "An abbreviated name for NFTs in this contract"
      }
    },
    "version": 1
  }
}