{
  "contractName": "ERC721",
  "abi": [
    {
      "inputs": [],
      "stateMutability": "nonpayable",
      "type": "constructor"
    },
    {
      "anonymous": false,
      "inputs": [
        {
          "indexed": true,
          "internalType": "address",
          "name": "_from",
          "type": "address"
        },
        {
          "indexed": true,
          "internalType": "address",
          "name": "_to",
          "type": "address"
        },
        {
          "indexed": true,
          "internalType": "uint256",
          "name": "_tokenId",
          "type": "uint256"
        }
      ],
      "name": "Transfer",
      "type": "event"
    },
    {
      "inputs": [
        {
          "internalType": "bytes4",
          "name": "interfaceID",
          "type": "bytes4"
        }
      ],
      "name": "supportsInterface",
      "outputs": [
        {
          "internalType": "bool",
          "name": "",
          "type": "bool"
        }
      ],
      "stateMutability": "view",
      "type": "function"
    },
    {
      "inputs": [
        {
          "internalType": "address",
          "name": "_owner",
          "type": "address"
        }
      ],
      "name": "balanceOf",
      "outputs": [
        {
          "internalType": "uint256",
          "name": "",
          "type": "uint256"
        }
      ],
      "stateMutability": "view",
      "type": "function"
    },
    {
      "inputs": [
        {
          "internalType": "uint256",
          "name": "_tokenId",
          "type": "uint256"
        }
      ],
      "name": "ownerOf",
      "outputs": [
        {
          "internalType": "address",
          "name": "",
          "type": "address"
        }
      ],
      "stateMutability": "view",
      "type": "function"
    },
    {
      "inputs": [
        {
          "internalType": "address",
          "name": "_from",
          "type": "address"
        },
        {
          "internalType": "address",
          "name": "_to",
          "type": "address"
        },
        {
          "internalType": "uint256",
          "name": "_tokenId",
          "type": "uint256"
        }
      ],
      "name": "transferFrom",
      "outputs": [],
      "stateMutability": "payable",
      "type": "function"
    }
  ],
  "bytecode": "0x608060405234801561001057600080fd5b5061003a7f01ffc9a7a5cef8baa21ed3c5c0d7e23accb804b619e9333b597f47a0d84076e2610068565b6100637fbc5130a0972555c3b46c692455915d5e91c9fcce91bfddc343b2dfa91c4faf9a610068565b61011f565b6001600160e01b031980821690036100fa5760405162461bcd60e51b8152602060048201526044602482018190527f4552433136353a2063616e6e6f7420726567697374657220616e20696e746572908201527f66616365207769746820746865206d616769632076616c7565203078666666666064820152633333333360e11b608482015260a40160405180910390fd5b6001600160e01b0319166000908152602081905260409020805460ff19166001179055565b6105118061012e6000396000f3fe60806040526004361061003f5760003560e01c806301ffc9a71461004457806323b872dd146100935780636352211e146100a857806370a08231146100e0575b600080fd5b34801561005057600080fd5b5061007e61005f3660046103d8565b6001600160e01b03191660009081526020819052604090205460ff1690565b60405190151581526020015b60405180910390f35b6100a66100a1366004610425565b61010e565b005b3480156100b457600080fd5b506100c86100c3366004610461565b61011e565b6040516001600160a01b03909116815260200161008a565b3480156100ec57600080fd5b506101006100fb36600461047a565b6101a1565b60405190815260200161008a565b610119838383610220565b505050565b6000818152600160205260408120546001600160a01b03168061019b5760405162461bcd60e51b815260206004820152602a60248201527f4552433732313a206f776e657220717565727920666f72206e6f6e2d657869736044820152693a32b73a103a37b5b2b760b11b60648201526084015b60405180910390fd5b92915050565b60006001600160a01b0382166102045760405162461bcd60e51b815260206004820152602260248201527f4552433732313a2062616c616e63654f66206f776e657220697320696e76616c6044820152611a5960f21b6064820152608401610192565b506001600160a01b031660009081526002602052604090205490565b6001600160a01b0382166102855760405162461bcd60e51b815260206004820152602660248201527f4552433732313a207472616e7366657220746f206164647265737320697320696044820152651b9d985b1a5960d21b6064820152608401610192565b826001600160a01b03166102988261011e565b6001600160a01b03161461030c5760405162461bcd60e51b815260206004820152603560248201527f4552433732313a2073656e646572206973206e6f7420746865206f776e6572206044820152741bd9881d1a194819da5d995b881d1bdad95b881251605a1b6064820152608401610192565b600081815260016020908152604080832080546001600160a01b0319166001600160a01b03878116919091179091558616835260029091528120805491610352836104ab565b90915550506001600160a01b038216600090815260026020526040812080549161037b836104c2565b909155505060008181526003602052604080822080546001600160a01b03191690555182916001600160a01b0385811692908716917fddf252ad1be2c89b69c2b068fc378daa952ba7f163c4a11628f55a4df523b3ef91a4505050565b6000602082840312156103ea57600080fd5b81356001600160e01b03198116811461040257600080fd5b9392505050565b80356001600160a01b038116811461042057600080fd5b919050565b60008060006060848603121561043a57600080fd5b61044384610409565b925061045160208501610409565b9150604084013590509250925092565b60006020828403121561047357600080fd5b5035919050565b60006020828403121561048c57600080fd5b61040282610409565b634e487b7160e01b600052601160045260246000fd5b6000816104ba576104ba610495565b506000190190565b6000600182016104d4576104d4610495565b506001019056fea26469706673582212203392f3147101151c0fdfc0e13086569495da1c0604bf86e9ae6b76f0f578410564736f6c634300080e0033",
  "immutableReferences": {},
  "source": "// SPDX-License-Identifier: MIT\r\npragma solidity ^0.8.0;\r\n\r\nimport \"./ERC165.sol\";\r\nimport \"./interfaces/IERC721.sol\";\r\n\r\n\r\ncontract ERC721 is ERC165, IERC721 {\r\n\t// mapping in solidity creates a hash table of key pair values\r\n\t// Mapping from token id to the token owner\r\n\tmapping(uint256 => address) private _tokenOwner;\r\n\r\n\t// Mapping from owner to number of owned tokens\r\n\tmapping(address => uint) private _OwnedTokensCount;\r\n\r\n\t// Mapping from token id to approved addresses\r\n\tmapping(uint256 => address) private _tokenApporvals;\r\n\r\n\tconstructor() {\r\n\t\t_registerInterface(\r\n\t\t\tbytes4(\r\n\t\t\t\tkeccak256(\"balanceOf(bytes4)\")^\r\n\t\t\t\tkeccak256(\"ownerOf(bytes4)\")^\r\n\t\t\t\tkeccak256(\"transferFrom\")\r\n\t\t\t)\r\n\t\t);\r\n\t}\r\n\r\n\tfunction _exists(uint256 tokenId) internal view returns (bool) {\r\n\t\t// settings the address of nft owner to check the mapping\r\n\t\t// of the address from token owner at the tokenId\r\n\t\taddress owner = _tokenOwner[tokenId];\r\n\t\t// If the owner is not 0, then the token exists\r\n\t\treturn owner != address(0); \r\n\t}\r\n\r\n\tfunction _mint(address to, uint256 tokenId) internal virtual {\r\n\t\t// requires that the address isn't zero\r\n\t\trequire(to != address(0), 'ERC721: mint to address is invalid');\r\n\t\t// requires that token token does not already exist\r\n\t\trequire(!_exists(tokenId), 'ERC721: token already exists');\r\n\t\t// we are adding a new address with a token id for minting\r\n\t\t_tokenOwner[tokenId] = to;\r\n\t\t// keeping track of each address that is minting and adding one to the account\r\n\t\t_OwnedTokensCount[to]++;\r\n\r\n\t\t// emit the transfer event\r\n\t\temit Transfer(address(0), to, tokenId);\r\n\t}\r\n\r\n\t/// @notice Count all NFTs assigned to an owner\r\n\t/// @dev NFTs assigned to the zero address are considered invalid, and this\r\n\t///  function throws for queries about the zero address.\r\n\t/// @param _owner An address for whom to query the balance\r\n\t/// @return The number of NFTs owned by `_owner`, possibly zero\r\n\tfunction balanceOf(address _owner) public view returns (uint256) {\r\n\t\t// If the owner is the zero address, then throw\r\n\t\trequire(_owner != address(0), 'ERC721: balanceOf owner is invalid');\r\n\t\treturn _OwnedTokensCount[_owner];\r\n\t}\r\n\r\n\t/// @notice Find the owner of an NFT\r\n\t/// @dev NFTs assigned to zero address are considered invalid, and queries\r\n\t///  about them do throw.\r\n\t/// @param _tokenId The identifier for an NFT\r\n\t/// @return The address of the owner of the NFT\r\n\tfunction ownerOf(uint256 _tokenId) public view returns(address) {\r\n\t\taddress owner = _tokenOwner[_tokenId];\r\n\t\t// if the owner is the zero address, then throw an error\r\n\t\trequire(owner != address(0), 'ERC721: owner query for non-existent token');\r\n\t\treturn owner;\r\n\t}\r\n\r\n\t/// @notice Transfer ownership of an NFT\r\n\t/// @dev Throws unless `msg.sender` is the current owner, an authorized\r\n\t///  operator, or the approved address for this NFT. Throws if `_from` is\r\n\t///  not the current owner. Throws if `_to` is the zero address. Throws if\r\n\t///  `_tokenId` is not a valid NFT.\r\n\t/// @param _from The current owner of the NFT\r\n\t/// @param _to The new owner\r\n\t/// @param _tokenId The NFT to transfer\r\n\tfunction _transferFrom(address _from, address _to, uint256 _tokenId) internal {\r\n\t\t// require that the address receiving a token is not a zero address\r\n\t\trequire(_to != address(0), 'ERC721: transfer to address is invalid');\r\n\t\t// require that the tokenId is _from's token\r\n\t\trequire(ownerOf(_tokenId) == _from, 'ERC721: sender is not the owner of the given token ID');\r\n\t\t// \r\n\t\t// add the token id to the address receiving the token\r\n\t\t_tokenOwner[_tokenId] = _to;\r\n\t\t// update the balance of the address from token\r\n\t\t_OwnedTokensCount[_from]--;\r\n\t\t// update the balance of the address to token\r\n\t\t_OwnedTokensCount[_to]++;\r\n\t\t// add the safe functionality\r\n\t\t_tokenApporvals[_tokenId] = address(0);\r\n\t\t// emit the transfer event\r\n\t\temit Transfer(_from, _to, _tokenId);\r\n\t}\r\n\r\n\tfunction transferFrom(address _from, address _to, uint256 _tokenId) public payable {\r\n\t\t// call the transfer function\r\n\t\t_transferFrom(_from, _to, _tokenId);\r\n\t}\r\n}",
  "sourcePath": "C:\\Users\\pc\\Desktop\\test\\nfts\\contracts\\ERC721.sol",
  "compiler": {
    "name": "solc",
    "version": "0.8.14+commit.80d49f37.Emscripten.clang"
  },
  "schemaVersion": "3.4.7",
  "updatedAt": "2022-06-01T14:40:37.546Z",
  "devdoc": {
    "kind": "dev",
    "methods": {
      "balanceOf(address)": {
        "details": "NFTs assigned to the zero address are considered invalid, and this  function throws for queries about the zero address.",
        "params": {
          "_owner": "An address for whom to query the balance"
        },
        "returns": {
          "_0": "The number of NFTs owned by `_owner`, possibly zero"
        }
      },
      "ownerOf(uint256)": {
        "details": "NFTs assigned to zero address are considered invalid, and queries  about them do throw.",
        "params": {
          "_tokenId": "The identifier for an NFT"
        },
        "returns": {
          "_0": "The address of the owner of the NFT"
        }
      },
      "supportsInterface(bytes4)": {
        "details": "Interface identification is specified in ERC-165. This uses less than 30.000 gas.",
        "params": {
          "interfaceID": "The interface identifier, as specified in ERC-165"
        },
        "returns": {
          "_0": "`true` if the contract implements `interfaceID`"
        }
      },
      "transferFrom(address,address,uint256)": {
        "details": "Throws unless `msg.sender` is the current owner, an authorized  operator, or the approved address for this NFT. Throws if `_from` is  not the current owner. Throws if `_to` is the zero address. Throws if  `_tokenId` is not a valid NFT.",
        "params": {
          "_from": "The current owner of the NFT",
          "_to": "The new owner",
          "_tokenId": "The NFT to transfer"
        }
      }
    },
    "version": 1
  },
  "userdoc": {
    "kind": "user",
    "methods": {
      "balanceOf(address)": {
        "notice": "Count all NFTs assigned to an owner"
      },
      "ownerOf(uint256)": {
        "notice": "Find the owner of an NFT"
      },
      "supportsInterface(bytes4)": {
        "notice": "Query if a contract implements an interface"
      },
      "transferFrom(address,address,uint256)": {
        "notice": "Transfer ownership of an NFT -- THE CALLER IS RESPONSIBLE  TO CONFIRM THAT `_to` IS CAPABLE OF RECEIVING NFTS OR ELSE  THEY MAY BE PERMANENTLY LOST"
      }
    },
    "version": 1
  }
}