{
  "contractName": "ERC721Connector",
  "abi": [
    {
      "inputs": [
        {
          "internalType": "string",
          "name": "name",
          "type": "string"
        },
        {
          "internalType": "string",
          "name": "symbol",
          "type": "string"
        }
      ],
      "stateMutability": "nonpayable",
      "type": "constructor"
    },
    {
      "anonymous": false,
      "inputs": [
        {
          "indexed": true,
          "internalType": "address",
          "name": "_from",
          "type": "address"
        },
        {
          "indexed": true,
          "internalType": "address",
          "name": "_to",
          "type": "address"
        },
        {
          "indexed": true,
          "internalType": "uint256",
          "name": "_tokenId",
          "type": "uint256"
        }
      ],
      "name": "Transfer",
      "type": "event"
    },
    {
      "inputs": [
        {
          "internalType": "address",
          "name": "_owner",
          "type": "address"
        }
      ],
      "name": "balanceOf",
      "outputs": [
        {
          "internalType": "uint256",
          "name": "",
          "type": "uint256"
        }
      ],
      "stateMutability": "view",
      "type": "function"
    },
    {
      "inputs": [],
      "name": "name",
      "outputs": [
        {
          "internalType": "string",
          "name": "",
          "type": "string"
        }
      ],
      "stateMutability": "view",
      "type": "function"
    },
    {
      "inputs": [
        {
          "internalType": "uint256",
          "name": "_tokenId",
          "type": "uint256"
        }
      ],
      "name": "ownerOf",
      "outputs": [
        {
          "internalType": "address",
          "name": "",
          "type": "address"
        }
      ],
      "stateMutability": "view",
      "type": "function"
    },
    {
      "inputs": [
        {
          "internalType": "bytes4",
          "name": "interfaceID",
          "type": "bytes4"
        }
      ],
      "name": "supportsInterface",
      "outputs": [
        {
          "internalType": "bool",
          "name": "",
          "type": "bool"
        }
      ],
      "stateMutability": "view",
      "type": "function"
    },
    {
      "inputs": [],
      "name": "symbol",
      "outputs": [
        {
          "internalType": "string",
          "name": "",
          "type": "string"
        }
      ],
      "stateMutability": "view",
      "type": "function"
    },
    {
      "inputs": [
        {
          "internalType": "uint256",
          "name": "index",
          "type": "uint256"
        }
      ],
      "name": "tokenByIndex",
      "outputs": [
        {
          "internalType": "uint256",
          "name": "",
          "type": "uint256"
        }
      ],
      "stateMutability": "view",
      "type": "function"
    },
    {
      "inputs": [
        {
          "internalType": "address",
          "name": "owner",
          "type": "address"
        },
        {
          "internalType": "uint256",
          "name": "index",
          "type": "uint256"
        }
      ],
      "name": "tokenOfOwnerByIndex",
      "outputs": [
        {
          "internalType": "uint256",
          "name": "",
          "type": "uint256"
        }
      ],
      "stateMutability": "view",
      "type": "function"
    },
    {
      "inputs": [],
      "name": "totalSupply",
      "outputs": [
        {
          "internalType": "uint256",
          "name": "",
          "type": "uint256"
        }
      ],
      "stateMutability": "view",
      "type": "function"
    },
    {
      "inputs": [
        {
          "internalType": "address",
          "name": "_from",
          "type": "address"
        },
        {
          "internalType": "address",
          "name": "_to",
          "type": "address"
        },
        {
          "internalType": "uint256",
          "name": "_tokenId",
          "type": "uint256"
        }
      ],
      "name": "transferFrom",
      "outputs": [],
      "stateMutability": "payable",
      "type": "function"
    }
  ],
  "bytecode": "0x60806040523480156200001157600080fd5b5060405162000cef38038062000cef833981016040819052620000349162000343565b8181620000617f01ffc9a7a5cef8baa21ed3c5c0d7e23accb804b619e9333b597f47a0d84076e262000118565b6200008c7fbc5130a0972555c3b46c692455915d5e91c9fcce91bfddc343b2dfa91c4faf9a62000118565b620000b77f2aa3f4710f58b303977da296b62cadae054c8971d883298d8ed6c6c0565c13c162000118565b620000e27f6c5b7360b116f8fd1d2a1ccb905de5c6a9e91e31b88b8db3cd997e184f357e9f62000118565b8151620000f7906008906020850190620001d0565b5080516200010d906009906020840190620001d0565b5050505050620003e9565b6001600160e01b03198082169003620001ab5760405162461bcd60e51b8152602060048201526044602482018190527f4552433136353a2063616e6e6f7420726567697374657220616e20696e746572908201527f66616365207769746820746865206d616769632076616c7565203078666666666064820152633333333360e11b608482015260a40160405180910390fd5b6001600160e01b0319166000908152602081905260409020805460ff19166001179055565b828054620001de90620003ad565b90600052602060002090601f0160209004810192826200020257600085556200024d565b82601f106200021d57805160ff19168380011785556200024d565b828001600101855582156200024d579182015b828111156200024d57825182559160200191906001019062000230565b506200025b9291506200025f565b5090565b5b808211156200025b576000815560010162000260565b634e487b7160e01b600052604160045260246000fd5b600082601f8301126200029e57600080fd5b81516001600160401b0380821115620002bb57620002bb62000276565b604051601f8301601f19908116603f01168101908282118183101715620002e657620002e662000276565b816040528381526020925086838588010111156200030357600080fd5b600091505b8382101562000327578582018301518183018401529082019062000308565b83821115620003395760008385830101525b9695505050505050565b600080604083850312156200035757600080fd5b82516001600160401b03808211156200036f57600080fd5b6200037d868387016200028c565b935060208501519150808211156200039457600080fd5b50620003a3858286016200028c565b9150509250929050565b600181811c90821680620003c257607f821691505b602082108103620003e357634e487b7160e01b600052602260045260246000fd5b50919050565b6108f680620003f96000396000f3fe6080604052600436106100865760003560e01c80632f745c59116100595780632f745c59146101305780634f6ccce7146101505780636352211e1461017057806370a08231146101a857806395d89b41146101c857600080fd5b806301ffc9a71461008b57806306fdde03146100da57806318160ddd146100fc57806323b872dd1461011b575b600080fd5b34801561009757600080fd5b506100c56100a63660046106ee565b6001600160e01b03191660009081526020819052604090205460ff1690565b60405190151581526020015b60405180910390f35b3480156100e657600080fd5b506100ef6101dd565b6040516100d1919061071f565b34801561010857600080fd5b506004545b6040519081526020016100d1565b61012e610129366004610790565b61026f565b005b34801561013c57600080fd5b5061010d61014b3660046107cc565b61027f565b34801561015c57600080fd5b5061010d61016b3660046107f6565b610393565b34801561017c57600080fd5b5061019061018b3660046107f6565b61042a565b6040516001600160a01b0390911681526020016100d1565b3480156101b457600080fd5b5061010d6101c336600461080f565b6104a8565b3480156101d457600080fd5b506100ef610527565b6060600880546101ec9061082a565b80601f01602080910402602001604051908101604052809291908181526020018280546102189061082a565b80156102655780601f1061023a57610100808354040283529160200191610265565b820191906000526020600020905b81548152906001019060200180831161024857829003601f168201915b5050505050905090565b61027a838383610536565b505050565b60006001600160a01b0383166102e75760405162461bcd60e51b815260206004820152602260248201527f455243373231456e756d657261626c653a206f776e657220697320696e76616c6044820152611a5960f21b60648201526084015b60405180910390fd5b6102f0836104a8565b82106103565760405162461bcd60e51b815260206004820152602f60248201527f455243373231456e756d657261626c653a204f776e657220696e64657820697360448201526e206f7574206f6620626f756e64732160881b60648201526084016102de565b6001600160a01b038316600090815260066020526040902080548390811061038057610380610864565b9060005260206000200154905092915050565b600061039e60045490565b82106104055760405162461bcd60e51b815260206004820152603060248201527f455243373231456e756d657261626c653a20476c6f62616c20696e646578206960448201526f73206f7574206f6620626f756e64732160801b60648201526084016102de565b6004828154811061041857610418610864565b90600052602060002001549050919050565b6000818152600160205260408120546001600160a01b0316806104a25760405162461bcd60e51b815260206004820152602a60248201527f4552433732313a206f776e657220717565727920666f72206e6f6e2d657869736044820152693a32b73a103a37b5b2b760b11b60648201526084016102de565b92915050565b60006001600160a01b03821661050b5760405162461bcd60e51b815260206004820152602260248201527f4552433732313a2062616c616e63654f66206f776e657220697320696e76616c6044820152611a5960f21b60648201526084016102de565b506001600160a01b031660009081526002602052604090205490565b6060600980546101ec9061082a565b6001600160a01b03821661059b5760405162461bcd60e51b815260206004820152602660248201527f4552433732313a207472616e7366657220746f206164647265737320697320696044820152651b9d985b1a5960d21b60648201526084016102de565b826001600160a01b03166105ae8261042a565b6001600160a01b0316146106225760405162461bcd60e51b815260206004820152603560248201527f4552433732313a2073656e646572206973206e6f7420746865206f776e6572206044820152741bd9881d1a194819da5d995b881d1bdad95b881251605a1b60648201526084016102de565b600081815260016020908152604080832080546001600160a01b0319166001600160a01b0387811691909117909155861683526002909152812080549161066883610890565b90915550506001600160a01b0382166000908152600260205260408120805491610691836108a7565b909155505060008181526003602052604080822080546001600160a01b03191690555182916001600160a01b0385811692908716917fddf252ad1be2c89b69c2b068fc378daa952ba7f163c4a11628f55a4df523b3ef91a4505050565b60006020828403121561070057600080fd5b81356001600160e01b03198116811461071857600080fd5b9392505050565b600060208083528351808285015260005b8181101561074c57858101830151858201604001528201610730565b8181111561075e576000604083870101525b50601f01601f1916929092016040019392505050565b80356001600160a01b038116811461078b57600080fd5b919050565b6000806000606084860312156107a557600080fd5b6107ae84610774565b92506107bc60208501610774565b9150604084013590509250925092565b600080604083850312156107df57600080fd5b6107e883610774565b946020939093013593505050565b60006020828403121561080857600080fd5b5035919050565b60006020828403121561082157600080fd5b61071882610774565b600181811c9082168061083e57607f821691505b60208210810361085e57634e487b7160e01b600052602260045260246000fd5b50919050565b634e487b7160e01b600052603260045260246000fd5b634e487b7160e01b600052601160045260246000fd5b60008161089f5761089f61087a565b506000190190565b6000600182016108b9576108b961087a565b506001019056fea2646970667358221220fb2033f88d984888f74d6f8dc21bd80cd68be14ce08a8f72cbe8516fa4b1acbb64736f6c634300080e0033",
  "immutableReferences": {},
  "source": "// SPDX-License-Identifier: MIT\r\npragma solidity ^0.8.0;\r\n\r\nimport \"./ERC721Metadata.sol\";\r\nimport \"./ERC721Enumerable.sol\";\r\n\r\ncontract ERC721Connector is ERC721Enumerable, ERC721Metadata {\r\n  constructor(string memory name, string memory symbol) ERC721Metadata(name, symbol) { }\r\n}",
  "sourcePath": "C:\\Users\\pc\\Desktop\\test\\nfts\\contracts\\ERC721Connector.sol",
  "compiler": {
    "name": "solc",
    "version": "0.8.14+commit.80d49f37.Emscripten.clang"
  },
  "schemaVersion": "3.4.7",
  "updatedAt": "2022-06-01T14:40:37.549Z",
  "devdoc": {
    "kind": "dev",
    "methods": {
      "balanceOf(address)": {
        "details": "NFTs assigned to the zero address are considered invalid, and this  function throws for queries about the zero address.",
        "params": {
          "_owner": "An address for whom to query the balance"
        },
        "returns": {
          "_0": "The number of NFTs owned by `_owner`, possibly zero"
        }
      },
      "ownerOf(uint256)": {
        "details": "NFTs assigned to zero address are considered invalid, and queries  about them do throw.",
        "params": {
          "_tokenId": "The identifier for an NFT"
        },
        "returns": {
          "_0": "The address of the owner of the NFT"
        }
      },
      "supportsInterface(bytes4)": {
        "details": "Interface identification is specified in ERC-165. This uses less than 30.000 gas.",
        "params": {
          "interfaceID": "The interface identifier, as specified in ERC-165"
        },
        "returns": {
          "_0": "`true` if the contract implements `interfaceID`"
        }
      },
      "totalSupply()": {
        "returns": {
          "_0": "A count of valid NFTs tracked by this contract, where each one of  them has an assigned and queryable owner not equal to the zero address"
        }
      },
      "transferFrom(address,address,uint256)": {
        "details": "Throws unless `msg.sender` is the current owner, an authorized  operator, or the approved address for this NFT. Throws if `_from` is  not the current owner. Throws if `_to` is the zero address. Throws if  `_tokenId` is not a valid NFT.",
        "params": {
          "_from": "The current owner of the NFT",
          "_to": "The new owner",
          "_tokenId": "The NFT to transfer"
        }
      }
    },
    "version": 1
  },
  "userdoc": {
    "kind": "user",
    "methods": {
      "balanceOf(address)": {
        "notice": "Count all NFTs assigned to an owner"
      },
      "name()": {
        "notice": "A descriptive name for a collection of NFTs in this contract"
      },
      "ownerOf(uint256)": {
        "notice": "Find the owner of an NFT"
      },
      "supportsInterface(bytes4)": {
        "notice": "Query if a contract implements an interface"
      },
      "symbol()": {
        "notice": "An abbreviated name for NFTs in this contract"
      },
      "totalSupply()": {
        "notice": "Count NFTs tracked by this contract"
      },
      "transferFrom(address,address,uint256)": {
        "notice": "Transfer ownership of an NFT -- THE CALLER IS RESPONSIBLE  TO CONFIRM THAT `_to` IS CAPABLE OF RECEIVING NFTS OR ELSE  THEY MAY BE PERMANENTLY LOST"
      }
    },
    "version": 1
  }
}