{
  "contractName": "ERC721",
  "abi": [
    {
      "anonymous": false,
      "inputs": [
        {
          "indexed": true,
          "internalType": "address",
          "name": "from",
          "type": "address"
        },
        {
          "indexed": true,
          "internalType": "address",
          "name": "to",
          "type": "address"
        },
        {
          "indexed": true,
          "internalType": "uint256",
          "name": "tokenId",
          "type": "uint256"
        }
      ],
      "name": "Transfer",
      "type": "event"
    },
    {
      "inputs": [
        {
          "internalType": "address",
          "name": "_owner",
          "type": "address"
        }
      ],
      "name": "balanceOf",
      "outputs": [
        {
          "internalType": "uint256",
          "name": "",
          "type": "uint256"
        }
      ],
      "stateMutability": "view",
      "type": "function"
    },
    {
      "inputs": [
        {
          "internalType": "uint256",
          "name": "_tokenId",
          "type": "uint256"
        }
      ],
      "name": "ownerOf",
      "outputs": [
        {
          "internalType": "address",
          "name": "",
          "type": "address"
        }
      ],
      "stateMutability": "view",
      "type": "function"
    },
    {
      "inputs": [
        {
          "internalType": "address",
          "name": "_from",
          "type": "address"
        },
        {
          "internalType": "address",
          "name": "_to",
          "type": "address"
        },
        {
          "internalType": "uint256",
          "name": "_tokenId",
          "type": "uint256"
        }
      ],
      "name": "transferFrom",
      "outputs": [],
      "stateMutability": "nonpayable",
      "type": "function"
    }
  ],
  "bytecode": "0x608060405234801561001057600080fd5b50610483806100206000396000f3fe608060405234801561001057600080fd5b50600436106100415760003560e01c806323b872dd146100465780636352211e1461005b57806370a082311461008b575b600080fd5b610059610054366004610390565b6100ac565b005b61006e6100693660046103cc565b6100bc565b6040516001600160a01b0390911681526020015b60405180910390f35b61009e6100993660046103e5565b61013f565b604051908152602001610082565b6100b78383836101be565b505050565b6000818152602081905260408120546001600160a01b0316806101395760405162461bcd60e51b815260206004820152602a60248201527f4552433732313a206f776e657220717565727920666f72206e6f6e2d657869736044820152693a32b73a103a37b5b2b760b11b60648201526084015b60405180910390fd5b92915050565b60006001600160a01b0382166101a25760405162461bcd60e51b815260206004820152602260248201527f4552433732313a2062616c616e63654f66206f776e657220697320696e76616c6044820152611a5960f21b6064820152608401610130565b506001600160a01b031660009081526001602052604090205490565b6001600160a01b0382166102235760405162461bcd60e51b815260206004820152602660248201527f4552433732313a207472616e7366657220746f206164647265737320697320696044820152651b9d985b1a5960d21b6064820152608401610130565b826001600160a01b0316610236826100bc565b6001600160a01b0316146102aa5760405162461bcd60e51b815260206004820152603560248201527f4552433732313a2073656e646572206973206e6f7420746865206f776e6572206044820152741bd9881d1a194819da5d995b881d1bdad95b881251605a1b6064820152608401610130565b60008181526020818152604080832080546001600160a01b0319166001600160a01b038781169190911790915586168352600190915281208054916102ee8361041d565b90915550506001600160a01b038216600090815260016020526040812080549161031783610434565b909155505060008181526002602052604080822080546001600160a01b03191690555182916001600160a01b0385811692908716917fddf252ad1be2c89b69c2b068fc378daa952ba7f163c4a11628f55a4df523b3ef91a4505050565b80356001600160a01b038116811461038b57600080fd5b919050565b6000806000606084860312156103a557600080fd5b6103ae84610374565b92506103bc60208501610374565b9150604084013590509250925092565b6000602082840312156103de57600080fd5b5035919050565b6000602082840312156103f757600080fd5b61040082610374565b9392505050565b634e487b7160e01b600052601160045260246000fd5b60008161042c5761042c610407565b506000190190565b60006001820161044657610446610407565b506001019056fea26469706673582212203e0ae8c0cf82210c5bda5b0cf552d0d7a12904b8cc2e5273378ab87c721062c064736f6c634300080e0033",
  "immutableReferences": {},
  "source": "// SPDX-License-Identifier: MIT\r\npragma solidity ^0.8.0;\r\n\r\ncontract ERC721 {\r\n\r\n\tevent Transfer(address indexed from, address indexed to, uint256 indexed tokenId);\r\n\t\r\n\t// mapping in solidity creates a hash table of key pair values\r\n\t// Mapping from token id to the token owner\r\n\tmapping(uint256 => address) private _tokenOwner;\r\n\r\n\t// Mapping from owner to number of owned tokens\r\n\tmapping(address => uint) private _OwnedTokensCount;\r\n\r\n\t// Mapping from token id to approved addresses\r\n\tmapping(uint256 => address) private _tokenApporvals;\r\n\r\n\r\n\tfunction _exists(uint256 tokenId) internal view returns (bool) {\r\n\t\t// settings the address of nft owner to check the mapping\r\n\t\t// of the address from token owner at the tokenId\r\n\t\taddress owner = _tokenOwner[tokenId];\r\n\t\t// If the owner is not 0, then the token exists\r\n\t\treturn owner != address(0); \r\n\t}\r\n\r\n\tfunction _mint(address to, uint256 tokenId) internal virtual {\r\n\t\t// requires that the address isn't zero\r\n\t\trequire(to != address(0), 'ERC721: mint to address is invalid');\r\n\t\t// requires that token token does not already exist\r\n\t\trequire(!_exists(tokenId), 'ERC721: token already exists');\r\n\t\t// we are adding a new address with a token id for minting\r\n\t\t_tokenOwner[tokenId] = to;\r\n\t\t// keeping track of each address that is minting and adding one to the account\r\n\t\t_OwnedTokensCount[to]++;\r\n\r\n\t\t// emit the transfer event\r\n\t\temit Transfer(address(0), to, tokenId);\r\n\t}\r\n\r\n\t/// @notice Count all NFTs assigned to an owner\r\n\t/// @dev NFTs assigned to the zero address are considered invalid, and this\r\n\t///  function throws for queries about the zero address.\r\n\t/// @param _owner An address for whom to query the balance\r\n\t/// @return The number of NFTs owned by `_owner`, possibly zero\r\n\tfunction balanceOf(address _owner) public view returns (uint256) {\r\n\t\t// If the owner is the zero address, then throw\r\n\t\trequire(_owner != address(0), 'ERC721: balanceOf owner is invalid');\r\n\t\treturn _OwnedTokensCount[_owner];\r\n\t}\r\n\r\n\t/// @notice Find the owner of an NFT\r\n\t/// @dev NFTs assigned to zero address are considered invalid, and queries\r\n\t///  about them do throw.\r\n\t/// @param _tokenId The identifier for an NFT\r\n\t/// @return The address of the owner of the NFT\r\n\tfunction ownerOf(uint256 _tokenId) public view returns(address) {\r\n\t\taddress owner = _tokenOwner[_tokenId];\r\n\t\t// if the owner is the zero address, then throw an error\r\n\t\trequire(owner != address(0), 'ERC721: owner query for non-existent token');\r\n\t\treturn owner;\r\n\t}\r\n\r\n\t\t/// @notice Transfer ownership of an NFT\r\n\t\t/// @dev Throws unless `msg.sender` is the current owner, an authorized\r\n\t\t///  operator, or the approved address for this NFT. Throws if `_from` is\r\n\t\t///  not the current owner. Throws if `_to` is the zero address. Throws if\r\n\t\t///  `_tokenId` is not a valid NFT.\r\n\t\t/// @param _from The current owner of the NFT\r\n\t\t/// @param _to The new owner\r\n\t\t/// @param _tokenId The NFT to transfer\r\n\t\tfunction _transferFrom(address _from, address _to, uint256 _tokenId) internal {\r\n\t\t\t// require that the address receiving a token is not a zero address\r\n\t\t\trequire(_to != address(0), 'ERC721: transfer to address is invalid');\r\n\t\t\t// require that the tokenId is _from's token\r\n\t\t\trequire(ownerOf(_tokenId) == _from, 'ERC721: sender is not the owner of the given token ID');\r\n\t\t\t// \r\n\r\n\t\t\t// add the token id to the address receiving the token\r\n\t\t\t_tokenOwner[_tokenId] = _to;\r\n\t\t\t// update the balance of the address from token\r\n\t\t\t_OwnedTokensCount[_from]--;\r\n\t\t\t// update the balance of the address to token\r\n\t\t\t_OwnedTokensCount[_to]++;\r\n\t\t\t// add the safe functionality\r\n\t\t\t_tokenApporvals[_tokenId] = address(0);\r\n\r\n\t\t\t// emit the transfer event\r\n\t\t\temit Transfer(_from, _to, _tokenId);\r\n\t\t}\r\n\r\n\t\tfunction transferFrom (address _from, address _to, uint256 _tokenId) public {\r\n\t\t\t// call the transfer function\r\n\t\t\t_transferFrom(_from, _to, _tokenId);\r\n\t\t}\r\n}",
  "sourcePath": "C:\\Users\\pc\\Desktop\\test\\nfts\\contracts\\ERC721.sol",
  "compiler": {
    "name": "solc",
    "version": "0.8.14+commit.80d49f37.Emscripten.clang"
  },
  "schemaVersion": "3.4.7",
  "updatedAt": "2022-05-31T14:31:45.919Z",
  "devdoc": {
    "kind": "dev",
    "methods": {
      "balanceOf(address)": {
        "details": "NFTs assigned to the zero address are considered invalid, and this  function throws for queries about the zero address.",
        "params": {
          "_owner": "An address for whom to query the balance"
        },
        "returns": {
          "_0": "The number of NFTs owned by `_owner`, possibly zero"
        }
      },
      "ownerOf(uint256)": {
        "details": "NFTs assigned to zero address are considered invalid, and queries  about them do throw.",
        "params": {
          "_tokenId": "The identifier for an NFT"
        },
        "returns": {
          "_0": "The address of the owner of the NFT"
        }
      }
    },
    "version": 1
  },
  "userdoc": {
    "kind": "user",
    "methods": {
      "balanceOf(address)": {
        "notice": "Count all NFTs assigned to an owner"
      },
      "ownerOf(uint256)": {
        "notice": "Find the owner of an NFT"
      }
    },
    "version": 1
  }
}