{
  "contractName": "ERC721Enumerable",
  "abi": [
    {
      "anonymous": false,
      "inputs": [
        {
          "indexed": true,
          "internalType": "address",
          "name": "from",
          "type": "address"
        },
        {
          "indexed": true,
          "internalType": "address",
          "name": "to",
          "type": "address"
        },
        {
          "indexed": true,
          "internalType": "uint256",
          "name": "tokenId",
          "type": "uint256"
        }
      ],
      "name": "Transfer",
      "type": "event"
    },
    {
      "inputs": [
        {
          "internalType": "address",
          "name": "_owner",
          "type": "address"
        }
      ],
      "name": "balanceOf",
      "outputs": [
        {
          "internalType": "uint256",
          "name": "",
          "type": "uint256"
        }
      ],
      "stateMutability": "view",
      "type": "function"
    },
    {
      "inputs": [
        {
          "internalType": "uint256",
          "name": "_tokenId",
          "type": "uint256"
        }
      ],
      "name": "ownerOf",
      "outputs": [
        {
          "internalType": "address",
          "name": "",
          "type": "address"
        }
      ],
      "stateMutability": "view",
      "type": "function"
    },
    {
      "inputs": [
        {
          "internalType": "bytes4",
          "name": "interfaceID",
          "type": "bytes4"
        }
      ],
      "name": "supportsInterface",
      "outputs": [
        {
          "internalType": "bool",
          "name": "",
          "type": "bool"
        }
      ],
      "stateMutability": "view",
      "type": "function"
    },
    {
      "inputs": [
        {
          "internalType": "address",
          "name": "_from",
          "type": "address"
        },
        {
          "internalType": "address",
          "name": "_to",
          "type": "address"
        },
        {
          "internalType": "uint256",
          "name": "_tokenId",
          "type": "uint256"
        }
      ],
      "name": "transferFrom",
      "outputs": [],
      "stateMutability": "payable",
      "type": "function"
    },
    {
      "inputs": [],
      "name": "totalSupply",
      "outputs": [
        {
          "internalType": "uint256",
          "name": "",
          "type": "uint256"
        }
      ],
      "stateMutability": "view",
      "type": "function"
    },
    {
      "inputs": [
        {
          "internalType": "uint256",
          "name": "index",
          "type": "uint256"
        }
      ],
      "name": "tokenByIndex",
      "outputs": [
        {
          "internalType": "uint256",
          "name": "",
          "type": "uint256"
        }
      ],
      "stateMutability": "view",
      "type": "function"
    },
    {
      "inputs": [
        {
          "internalType": "address",
          "name": "owner",
          "type": "address"
        },
        {
          "internalType": "uint256",
          "name": "index",
          "type": "uint256"
        }
      ],
      "name": "tokenOfOwnerByIndex",
      "outputs": [
        {
          "internalType": "uint256",
          "name": "",
          "type": "uint256"
        }
      ],
      "stateMutability": "view",
      "type": "function"
    }
  ],
  "bytecode": "0x608060405234801561001057600080fd5b5061003a7f01ffc9a7a5cef8baa21ed3c5c0d7e23accb804b619e9333b597f47a0d84076e261003f565b6100f6565b6001600160e01b031980821690036100d15760405162461bcd60e51b8152602060048201526044602482018190527f4552433136353a2063616e6e6f7420726567697374657220616e20696e746572908201527f66616365207769746820746865206d616769632076616c7565203078666666666064820152633333333360e11b608482015260a40160405180910390fd5b6001600160e01b0319166000908152602081905260409020805460ff19166001179055565b610779806101056000396000f3fe6080604052600436106100705760003560e01c80632f745c591161004e5780632f745c59146100f85780634f6ccce7146101185780636352211e1461013857806370a082311461017057600080fd5b806301ffc9a71461007557806318160ddd146100c457806323b872dd146100e3575b600080fd5b34801561008157600080fd5b506100af610090366004610600565b6001600160e01b03191660009081526020819052604090205460ff1690565b60405190151581526020015b60405180910390f35b3480156100d057600080fd5b506004545b6040519081526020016100bb565b6100f66100f136600461064d565b610190565b005b34801561010457600080fd5b506100d5610113366004610689565b6101a0565b34801561012457600080fd5b506100d56101333660046106b3565b6102b4565b34801561014457600080fd5b506101586101533660046106b3565b61034b565b6040516001600160a01b0390911681526020016100bb565b34801561017c57600080fd5b506100d561018b3660046106cc565b6103c9565b61019b838383610448565b505050565b60006001600160a01b0383166102085760405162461bcd60e51b815260206004820152602260248201527f455243373231456e756d657261626c653a206f776e657220697320696e76616c6044820152611a5960f21b60648201526084015b60405180910390fd5b610211836103c9565b82106102775760405162461bcd60e51b815260206004820152602f60248201527f455243373231456e756d657261626c653a204f776e657220696e64657820697360448201526e206f7574206f6620626f756e64732160881b60648201526084016101ff565b6001600160a01b03831660009081526006602052604090208054839081106102a1576102a16106e7565b9060005260206000200154905092915050565b60006102bf60045490565b82106103265760405162461bcd60e51b815260206004820152603060248201527f455243373231456e756d657261626c653a20476c6f62616c20696e646578206960448201526f73206f7574206f6620626f756e64732160801b60648201526084016101ff565b60048281548110610339576103396106e7565b90600052602060002001549050919050565b6000818152600160205260408120546001600160a01b0316806103c35760405162461bcd60e51b815260206004820152602a60248201527f4552433732313a206f776e657220717565727920666f72206e6f6e2d657869736044820152693a32b73a103a37b5b2b760b11b60648201526084016101ff565b92915050565b60006001600160a01b03821661042c5760405162461bcd60e51b815260206004820152602260248201527f4552433732313a2062616c616e63654f66206f776e657220697320696e76616c6044820152611a5960f21b60648201526084016101ff565b506001600160a01b031660009081526002602052604090205490565b6001600160a01b0382166104ad5760405162461bcd60e51b815260206004820152602660248201527f4552433732313a207472616e7366657220746f206164647265737320697320696044820152651b9d985b1a5960d21b60648201526084016101ff565b826001600160a01b03166104c08261034b565b6001600160a01b0316146105345760405162461bcd60e51b815260206004820152603560248201527f4552433732313a2073656e646572206973206e6f7420746865206f776e6572206044820152741bd9881d1a194819da5d995b881d1bdad95b881251605a1b60648201526084016101ff565b600081815260016020908152604080832080546001600160a01b0319166001600160a01b0387811691909117909155861683526002909152812080549161057a83610713565b90915550506001600160a01b03821660009081526002602052604081208054916105a38361072a565b909155505060008181526003602052604080822080546001600160a01b03191690555182916001600160a01b0385811692908716917fddf252ad1be2c89b69c2b068fc378daa952ba7f163c4a11628f55a4df523b3ef91a4505050565b60006020828403121561061257600080fd5b81356001600160e01b03198116811461062a57600080fd5b9392505050565b80356001600160a01b038116811461064857600080fd5b919050565b60008060006060848603121561066257600080fd5b61066b84610631565b925061067960208501610631565b9150604084013590509250925092565b6000806040838503121561069c57600080fd5b6106a583610631565b946020939093013593505050565b6000602082840312156106c557600080fd5b5035919050565b6000602082840312156106de57600080fd5b61062a82610631565b634e487b7160e01b600052603260045260246000fd5b634e487b7160e01b600052601160045260246000fd5b600081610722576107226106fd565b506000190190565b60006001820161073c5761073c6106fd565b506001019056fea2646970667358221220fc362ccc6d84171bd4df50bf55685311b7fdbfdd7c7be62d4c52d2824fea0e1c64736f6c634300080e0033",
  "immutableReferences": {},
  "source": "// SPDX-License-Identifier: MIT\r\npragma solidity ^0.8.0;\r\n\r\nimport './ERC721.sol';\r\n\r\ncontract ERC721Enumerable is ERC721 {\r\n\r\n  uint256[] private _allTokens;\r\n\r\n  // mapping from tokenId to position in _allTokens array\r\n  mapping(uint256 => uint256) private _allTokensIndex;\r\n\r\n  // mapping of owner to list of all owner token ids\r\n  mapping(address => uint256[]) private _ownedTokens;\r\n\r\n  // mapping from tokenId index of the owner tokens list\r\n  mapping(uint256 => uint256) private _ownedTokensIndex;\r\n\r\n  /// @notice Count NFTs tracked by this contract\r\n  /// @return A count of valid NFTs tracked by this contract, where each one of\r\n  ///  them has an assigned and queryable owner not equal to the zero address\r\n  function totalSupply() public view returns (uint256) {\r\n    return _allTokens.length;\r\n  }\r\n\r\n  function _mint(address to, uint256 tokenId) internal override(ERC721) {\r\n    super._mint(to, tokenId);\r\n    // 2 things! 1. add tokens to the owner\r\n    // B. all tokens to our totalsupply - to allTokens\r\n    _addTokensToAllTokenEnumeration(tokenId);\r\n    _addTokensToOwnerEnumeration(to, tokenId);\r\n  }\r\n\r\n  // add tokens to the _allTokens array and set the position of the tokens indexes\r\n  function _addTokensToAllTokenEnumeration(uint256 tokenId) private {\r\n    _allTokensIndex[tokenId] = _allTokens.length;\r\n    _allTokens.push(tokenId);\r\n  }\r\n\r\n  // two functions - one that returns tokenByIndex and\r\n  // another one that returns tokenOfByOwnerIndex\r\n\r\n  function tokenByIndex(uint256 index) public view returns (uint256) {\r\n    // make sure that the index is not out of bounds the totalSupply\r\n    require(index < totalSupply(), \"ERC721Enumerable: Global index is out of bounds!\");\r\n    return _allTokens[index];\r\n  }\r\n\r\n  function tokenOfOwnerByIndex(address owner, uint index) public view returns(uint256) {\r\n    require(owner != address(0), \"ERC721Enumerable: owner is invalid\");\r\n    require(index < balanceOf(owner), \"ERC721Enumerable: Owner index is out of bounds!\");\r\n    return _ownedTokens[owner][index];\r\n  }\r\n  \r\n  // add tokens to the owner list and set the position of the tokens indexes\r\n  function _addTokensToOwnerEnumeration(address to, uint256 tokenId) private { \r\n    _ownedTokens[to].push(tokenId);\r\n    _ownedTokensIndex[tokenId] = _ownedTokens[to].length;  \r\n  }\r\n}",
  "sourcePath": "C:\\Users\\pc\\Desktop\\test\\nfts\\contracts\\ERC721Enumerable.sol",
  "compiler": {
    "name": "solc",
    "version": "0.8.14+commit.80d49f37.Emscripten.clang"
  },
  "schemaVersion": "3.4.7",
  "updatedAt": "2022-06-01T11:33:40.097Z",
  "devdoc": {
    "kind": "dev",
    "methods": {
      "balanceOf(address)": {
        "details": "NFTs assigned to the zero address are considered invalid, and this  function throws for queries about the zero address.",
        "params": {
          "_owner": "An address for whom to query the balance"
        },
        "returns": {
          "_0": "The number of NFTs owned by `_owner`, possibly zero"
        }
      },
      "ownerOf(uint256)": {
        "details": "NFTs assigned to zero address are considered invalid, and queries  about them do throw.",
        "params": {
          "_tokenId": "The identifier for an NFT"
        },
        "returns": {
          "_0": "The address of the owner of the NFT"
        }
      },
      "supportsInterface(bytes4)": {
        "details": "Interface identification is specified in ERC-165. This uses less than 30.000 gas.",
        "params": {
          "interfaceID": "The interface identifier, as specified in ERC-165"
        },
        "returns": {
          "_0": "`true` if the contract implements `interfaceID`"
        }
      },
      "totalSupply()": {
        "returns": {
          "_0": "A count of valid NFTs tracked by this contract, where each one of  them has an assigned and queryable owner not equal to the zero address"
        }
      },
      "transferFrom(address,address,uint256)": {
        "details": "Throws unless `msg.sender` is the current owner, an authorized  operator, or the approved address for this NFT. Throws if `_from` is  not the current owner. Throws if `_to` is the zero address. Throws if  `_tokenId` is not a valid NFT.",
        "params": {
          "_from": "The current owner of the NFT",
          "_to": "The new owner",
          "_tokenId": "The NFT to transfer"
        }
      }
    },
    "version": 1
  },
  "userdoc": {
    "kind": "user",
    "methods": {
      "balanceOf(address)": {
        "notice": "Count all NFTs assigned to an owner"
      },
      "ownerOf(uint256)": {
        "notice": "Find the owner of an NFT"
      },
      "supportsInterface(bytes4)": {
        "notice": "Query if a contract implements an interface"
      },
      "totalSupply()": {
        "notice": "Count NFTs tracked by this contract"
      },
      "transferFrom(address,address,uint256)": {
        "notice": "Transfer ownership of an NFT -- THE CALLER IS RESPONSIBLE  TO CONFIRM THAT `_to` IS CAPABLE OF RECEIVING NFTS OR ELSE  THEY MAY BE PERMANENTLY LOST"
      }
    },
    "version": 1
  }
}