{
  "contractName": "KryptoBird",
  "abi": [
    {
      "inputs": [],
      "stateMutability": "nonpayable",
      "type": "constructor"
    },
    {
      "anonymous": false,
      "inputs": [
        {
          "indexed": true,
          "internalType": "address",
          "name": "from",
          "type": "address"
        },
        {
          "indexed": true,
          "internalType": "address",
          "name": "to",
          "type": "address"
        },
        {
          "indexed": true,
          "internalType": "uint256",
          "name": "tokenId",
          "type": "uint256"
        }
      ],
      "name": "Transfer",
      "type": "event"
    },
    {
      "inputs": [
        {
          "internalType": "address",
          "name": "_owner",
          "type": "address"
        }
      ],
      "name": "balanceOf",
      "outputs": [
        {
          "internalType": "uint256",
          "name": "",
          "type": "uint256"
        }
      ],
      "stateMutability": "view",
      "type": "function"
    },
    {
      "inputs": [
        {
          "internalType": "uint256",
          "name": "",
          "type": "uint256"
        }
      ],
      "name": "kryptoBirdz",
      "outputs": [
        {
          "internalType": "string",
          "name": "",
          "type": "string"
        }
      ],
      "stateMutability": "view",
      "type": "function"
    },
    {
      "inputs": [],
      "name": "name",
      "outputs": [
        {
          "internalType": "string",
          "name": "",
          "type": "string"
        }
      ],
      "stateMutability": "view",
      "type": "function"
    },
    {
      "inputs": [
        {
          "internalType": "uint256",
          "name": "_tokenId",
          "type": "uint256"
        }
      ],
      "name": "ownerOf",
      "outputs": [
        {
          "internalType": "address",
          "name": "",
          "type": "address"
        }
      ],
      "stateMutability": "view",
      "type": "function"
    },
    {
      "inputs": [
        {
          "internalType": "bytes4",
          "name": "interfaceID",
          "type": "bytes4"
        }
      ],
      "name": "supportsInterface",
      "outputs": [
        {
          "internalType": "bool",
          "name": "",
          "type": "bool"
        }
      ],
      "stateMutability": "view",
      "type": "function"
    },
    {
      "inputs": [],
      "name": "symbol",
      "outputs": [
        {
          "internalType": "string",
          "name": "",
          "type": "string"
        }
      ],
      "stateMutability": "view",
      "type": "function"
    },
    {
      "inputs": [
        {
          "internalType": "uint256",
          "name": "index",
          "type": "uint256"
        }
      ],
      "name": "tokenByIndex",
      "outputs": [
        {
          "internalType": "uint256",
          "name": "",
          "type": "uint256"
        }
      ],
      "stateMutability": "view",
      "type": "function"
    },
    {
      "inputs": [
        {
          "internalType": "address",
          "name": "owner",
          "type": "address"
        },
        {
          "internalType": "uint256",
          "name": "index",
          "type": "uint256"
        }
      ],
      "name": "tokenOfOwnerByIndex",
      "outputs": [
        {
          "internalType": "uint256",
          "name": "",
          "type": "uint256"
        }
      ],
      "stateMutability": "view",
      "type": "function"
    },
    {
      "inputs": [],
      "name": "totalSupply",
      "outputs": [
        {
          "internalType": "uint256",
          "name": "",
          "type": "uint256"
        }
      ],
      "stateMutability": "view",
      "type": "function"
    },
    {
      "inputs": [
        {
          "internalType": "address",
          "name": "_from",
          "type": "address"
        },
        {
          "internalType": "address",
          "name": "_to",
          "type": "address"
        },
        {
          "internalType": "uint256",
          "name": "_tokenId",
          "type": "uint256"
        }
      ],
      "name": "transferFrom",
      "outputs": [],
      "stateMutability": "payable",
      "type": "function"
    },
    {
      "inputs": [
        {
          "internalType": "string",
          "name": "_kryptoBird",
          "type": "string"
        }
      ],
      "name": "mint",
      "outputs": [],
      "stateMutability": "nonpayable",
      "type": "function"
    }
  ],
  "bytecode": "0x60806040523480156200001157600080fd5b506040518060400160405280600a81526020016912dc9e5c1d1bd89a5c9960b21b8152506040518060400160405280600381526020016225a92160e91b8152508181620000847f01ffc9a7a5cef8baa21ed3c5c0d7e23accb804b619e9333b597f47a0d84076e2620000ba60201b60201c565b81516200009990600890602085019062000172565b508051620000af90600990602084019062000172565b505050505062000254565b6001600160e01b031980821690036200014d5760405162461bcd60e51b8152602060048201526044602482018190527f4552433136353a2063616e6e6f7420726567697374657220616e20696e746572908201527f66616365207769746820746865206d616769632076616c7565203078666666666064820152633333333360e11b608482015260a40160405180910390fd5b6001600160e01b0319166000908152602081905260409020805460ff19166001179055565b828054620001809062000218565b90600052602060002090601f016020900481019282620001a45760008555620001ef565b82601f10620001bf57805160ff1916838001178555620001ef565b82800160010185558215620001ef579182015b82811115620001ef578251825591602001919060010190620001d2565b50620001fd92915062000201565b5090565b5b80821115620001fd576000815560010162000202565b600181811c908216806200022d57607f821691505b6020821081036200024e57634e487b7160e01b600052602260045260246000fd5b50919050565b610e8780620002646000396000f3fe60806040526004361061009c5760003560e01c80634f6ccce7116100645780634f6ccce7146101665780636352211e1461018657806370a08231146101be57806393ab6e56146101de57806395d89b41146101fe578063d85d3d271461021357600080fd5b806301ffc9a7146100a157806306fdde03146100f057806318160ddd1461011257806323b872dd146101315780632f745c5914610146575b600080fd5b3480156100ad57600080fd5b506100db6100bc366004610b77565b6001600160e01b03191660009081526020819052604090205460ff1690565b60405190151581526020015b60405180910390f35b3480156100fc57600080fd5b50610105610233565b6040516100e79190610bd8565b34801561011e57600080fd5b506004545b6040519081526020016100e7565b61014461013f366004610c27565b6102c5565b005b34801561015257600080fd5b50610123610161366004610c63565b6102d5565b34801561017257600080fd5b50610123610181366004610c8d565b6103e9565b34801561019257600080fd5b506101a66101a1366004610c8d565b610480565b6040516001600160a01b0390911681526020016100e7565b3480156101ca57600080fd5b506101236101d9366004610ca6565b6104fe565b3480156101ea57600080fd5b506101056101f9366004610c8d565b61057d565b34801561020a57600080fd5b50610105610629565b34801561021f57600080fd5b5061014461022e366004610cd7565b610638565b60606008805461024290610d88565b80601f016020809104026020016040519081016040528092919081815260200182805461026e90610d88565b80156102bb5780601f10610290576101008083540402835291602001916102bb565b820191906000526020600020905b81548152906001019060200180831161029e57829003601f168201915b5050505050905090565b6102d083838361074e565b505050565b60006001600160a01b03831661033d5760405162461bcd60e51b815260206004820152602260248201527f455243373231456e756d657261626c653a206f776e657220697320696e76616c6044820152611a5960f21b60648201526084015b60405180910390fd5b610346836104fe565b82106103ac5760405162461bcd60e51b815260206004820152602f60248201527f455243373231456e756d657261626c653a204f776e657220696e64657820697360448201526e206f7574206f6620626f756e64732160881b6064820152608401610334565b6001600160a01b03831660009081526006602052604090208054839081106103d6576103d6610dc2565b9060005260206000200154905092915050565b60006103f460045490565b821061045b5760405162461bcd60e51b815260206004820152603060248201527f455243373231456e756d657261626c653a20476c6f62616c20696e646578206960448201526f73206f7574206f6620626f756e64732160801b6064820152608401610334565b6004828154811061046e5761046e610dc2565b90600052602060002001549050919050565b6000818152600160205260408120546001600160a01b0316806104f85760405162461bcd60e51b815260206004820152602a60248201527f4552433732313a206f776e657220717565727920666f72206e6f6e2d657869736044820152693a32b73a103a37b5b2b760b11b6064820152608401610334565b92915050565b60006001600160a01b0382166105615760405162461bcd60e51b815260206004820152602260248201527f4552433732313a2062616c616e63654f66206f776e657220697320696e76616c6044820152611a5960f21b6064820152608401610334565b506001600160a01b031660009081526002602052604090205490565b600a818154811061058d57600080fd5b9060005260206000200160009150905080546105a890610d88565b80601f01602080910402602001604051908101604052809291908181526020018280546105d490610d88565b80156106215780601f106105f657610100808354040283529160200191610621565b820191906000526020600020905b81548152906001019060200180831161060457829003601f168201915b505050505081565b60606009805461024290610d88565b600b816040516106489190610dd8565b9081526040519081900360200190205460ff16156106b65760405162461bcd60e51b815260206004820152602560248201527f4b727970746f426972643a206b727970746f4269726420616c72656164792065604482015264786973747360d81b6064820152608401610334565b600a805460018101825560009190915281516106f9917fc65a7bb8d6351c1cf70c95a316cc6a92839c986682d98bc35f958f4883f9d2a801906020840190610ade565b50600a5460009061070c90600190610e0a565b90506107183382610906565b6001600b8360405161072a9190610dd8565b908152604051908190036020019020805491151560ff199092169190911790555050565b6001600160a01b0382166107b35760405162461bcd60e51b815260206004820152602660248201527f4552433732313a207472616e7366657220746f206164647265737320697320696044820152651b9d985b1a5960d21b6064820152608401610334565b826001600160a01b03166107c682610480565b6001600160a01b03161461083a5760405162461bcd60e51b815260206004820152603560248201527f4552433732313a2073656e646572206973206e6f7420746865206f776e6572206044820152741bd9881d1a194819da5d995b881d1bdad95b881251605a1b6064820152608401610334565b600081815260016020908152604080832080546001600160a01b0319166001600160a01b0387811691909117909155861683526002909152812080549161088083610e21565b90915550506001600160a01b03821660009081526002602052604081208054916108a983610e38565b909155505060008181526003602052604080822080546001600160a01b03191690555182916001600160a01b0385811692908716917fddf252ad1be2c89b69c2b068fc378daa952ba7f163c4a11628f55a4df523b3ef91a4505050565b6109108282610995565b61095881600480546000838152600560205260408120829055600182018355919091527f8a35acfbc15ff81a39ae7d344fd709f28e8600b4aa8c65c6b64bfe7fe36bd19b0155565b6001600160a01b03919091166000908152600660209081526040808320805460018101825581855283852001859055549383526007909152902055565b6001600160a01b0382166109f65760405162461bcd60e51b815260206004820152602260248201527f4552433732313a206d696e7420746f206164647265737320697320696e76616c6044820152611a5960f21b6064820152608401610334565b6000818152600160205260409020546001600160a01b031615610a5b5760405162461bcd60e51b815260206004820152601c60248201527f4552433732313a20746f6b656e20616c726561647920657869737473000000006044820152606401610334565b600081815260016020908152604080832080546001600160a01b0319166001600160a01b038716908117909155835260029091528120805491610a9d83610e38565b909155505060405181906001600160a01b038416906000907fddf252ad1be2c89b69c2b068fc378daa952ba7f163c4a11628f55a4df523b3ef908290a45050565b828054610aea90610d88565b90600052602060002090601f016020900481019282610b0c5760008555610b52565b82601f10610b2557805160ff1916838001178555610b52565b82800160010185558215610b52579182015b82811115610b52578251825591602001919060010190610b37565b50610b5e929150610b62565b5090565b5b80821115610b5e5760008155600101610b63565b600060208284031215610b8957600080fd5b81356001600160e01b031981168114610ba157600080fd5b9392505050565b60005b83811015610bc3578181015183820152602001610bab565b83811115610bd2576000848401525b50505050565b6020815260008251806020840152610bf7816040850160208701610ba8565b601f01601f19169190910160400192915050565b80356001600160a01b0381168114610c2257600080fd5b919050565b600080600060608486031215610c3c57600080fd5b610c4584610c0b565b9250610c5360208501610c0b565b9150604084013590509250925092565b60008060408385031215610c7657600080fd5b610c7f83610c0b565b946020939093013593505050565b600060208284031215610c9f57600080fd5b5035919050565b600060208284031215610cb857600080fd5b610ba182610c0b565b634e487b7160e01b600052604160045260246000fd5b600060208284031215610ce957600080fd5b813567ffffffffffffffff80821115610d0157600080fd5b818401915084601f830112610d1557600080fd5b813581811115610d2757610d27610cc1565b604051601f8201601f19908116603f01168101908382118183101715610d4f57610d4f610cc1565b81604052828152876020848701011115610d6857600080fd5b826020860160208301376000928101602001929092525095945050505050565b600181811c90821680610d9c57607f821691505b602082108103610dbc57634e487b7160e01b600052602260045260246000fd5b50919050565b634e487b7160e01b600052603260045260246000fd5b60008251610dea818460208701610ba8565b9190910192915050565b634e487b7160e01b600052601160045260246000fd5b600082821015610e1c57610e1c610df4565b500390565b600081610e3057610e30610df4565b506000190190565b600060018201610e4a57610e4a610df4565b506001019056fea2646970667358221220086f406313aa2d4731c604cf0de7ad08d5465165ddaed2bed65f90ac0b701a9764736f6c634300080e0033",
  "immutableReferences": {},
  "source": "// SPDX-License-Identifier: MIT\r\npragma solidity ^0.8.0;\r\n\r\nimport \"./ERC721Connector.sol\";\r\n\r\ncontract KryptoBird is ERC721Connector {\r\n  // array to store our nfts\r\n  string[] public kryptoBirdz;\r\n \r\n  mapping(string => bool) _kryptoBirdzExists;\r\n\r\n  function mint(string memory _kryptoBird) public {\r\n    require(_kryptoBirdzExists[_kryptoBird] == false, \"KryptoBird: kryptoBird already exists\");\r\n\r\n    // this is deprecated - uint _id = KryptoBirdz.push(_kryptoBird);\r\n    // .push no longer retruns the length but a ref to added element\r\n\r\n    kryptoBirdz.push(_kryptoBird);\r\n    uint256 _id = kryptoBirdz.length - 1;\r\n    _mint(msg.sender, _id);\r\n\r\n    _kryptoBirdzExists[_kryptoBird] = true;\r\n  }\r\n\r\n  constructor() ERC721Connector('Kryptobird', 'KRB') {\r\n\r\n  }\r\n}",
  "sourcePath": "C:\\Users\\pc\\Desktop\\test\\nfts\\contracts\\Kryptobird.sol",
  "compiler": {
    "name": "solc",
    "version": "0.8.14+commit.80d49f37.Emscripten.clang"
  },
  "schemaVersion": "3.4.7",
  "updatedAt": "2022-06-01T11:33:40.104Z",
  "devdoc": {
    "kind": "dev",
    "methods": {
      "balanceOf(address)": {
        "details": "NFTs assigned to the zero address are considered invalid, and this  function throws for queries about the zero address.",
        "params": {
          "_owner": "An address for whom to query the balance"
        },
        "returns": {
          "_0": "The number of NFTs owned by `_owner`, possibly zero"
        }
      },
      "ownerOf(uint256)": {
        "details": "NFTs assigned to zero address are considered invalid, and queries  about them do throw.",
        "params": {
          "_tokenId": "The identifier for an NFT"
        },
        "returns": {
          "_0": "The address of the owner of the NFT"
        }
      },
      "supportsInterface(bytes4)": {
        "details": "Interface identification is specified in ERC-165. This uses less than 30.000 gas.",
        "params": {
          "interfaceID": "The interface identifier, as specified in ERC-165"
        },
        "returns": {
          "_0": "`true` if the contract implements `interfaceID`"
        }
      },
      "totalSupply()": {
        "returns": {
          "_0": "A count of valid NFTs tracked by this contract, where each one of  them has an assigned and queryable owner not equal to the zero address"
        }
      },
      "transferFrom(address,address,uint256)": {
        "details": "Throws unless `msg.sender` is the current owner, an authorized  operator, or the approved address for this NFT. Throws if `_from` is  not the current owner. Throws if `_to` is the zero address. Throws if  `_tokenId` is not a valid NFT.",
        "params": {
          "_from": "The current owner of the NFT",
          "_to": "The new owner",
          "_tokenId": "The NFT to transfer"
        }
      }
    },
    "version": 1
  },
  "userdoc": {
    "kind": "user",
    "methods": {
      "balanceOf(address)": {
        "notice": "Count all NFTs assigned to an owner"
      },
      "ownerOf(uint256)": {
        "notice": "Find the owner of an NFT"
      },
      "supportsInterface(bytes4)": {
        "notice": "Query if a contract implements an interface"
      },
      "totalSupply()": {
        "notice": "Count NFTs tracked by this contract"
      },
      "transferFrom(address,address,uint256)": {
        "notice": "Transfer ownership of an NFT -- THE CALLER IS RESPONSIBLE  TO CONFIRM THAT `_to` IS CAPABLE OF RECEIVING NFTS OR ELSE  THEY MAY BE PERMANENTLY LOST"
      }
    },
    "version": 1
  }
}