{
  "contractName": "KryptoBird",
  "abi": [
    {
      "inputs": [],
      "stateMutability": "nonpayable",
      "type": "constructor"
    },
    {
      "anonymous": false,
      "inputs": [
        {
          "indexed": true,
          "internalType": "address",
          "name": "from",
          "type": "address"
        },
        {
          "indexed": true,
          "internalType": "address",
          "name": "to",
          "type": "address"
        },
        {
          "indexed": true,
          "internalType": "uint256",
          "name": "tokenId",
          "type": "uint256"
        }
      ],
      "name": "Transfer",
      "type": "event"
    },
    {
      "inputs": [
        {
          "internalType": "address",
          "name": "_owner",
          "type": "address"
        }
      ],
      "name": "balanceOf",
      "outputs": [
        {
          "internalType": "uint256",
          "name": "",
          "type": "uint256"
        }
      ],
      "stateMutability": "view",
      "type": "function"
    },
    {
      "inputs": [
        {
          "internalType": "uint256",
          "name": "",
          "type": "uint256"
        }
      ],
      "name": "kryptoBirdz",
      "outputs": [
        {
          "internalType": "string",
          "name": "",
          "type": "string"
        }
      ],
      "stateMutability": "view",
      "type": "function"
    },
    {
      "inputs": [],
      "name": "name",
      "outputs": [
        {
          "internalType": "string",
          "name": "",
          "type": "string"
        }
      ],
      "stateMutability": "view",
      "type": "function"
    },
    {
      "inputs": [
        {
          "internalType": "uint256",
          "name": "_tokenId",
          "type": "uint256"
        }
      ],
      "name": "ownerOf",
      "outputs": [
        {
          "internalType": "address",
          "name": "",
          "type": "address"
        }
      ],
      "stateMutability": "view",
      "type": "function"
    },
    {
      "inputs": [],
      "name": "symbol",
      "outputs": [
        {
          "internalType": "string",
          "name": "",
          "type": "string"
        }
      ],
      "stateMutability": "view",
      "type": "function"
    },
    {
      "inputs": [],
      "name": "totalSupply",
      "outputs": [
        {
          "internalType": "uint256",
          "name": "",
          "type": "uint256"
        }
      ],
      "stateMutability": "view",
      "type": "function"
    },
    {
      "inputs": [
        {
          "internalType": "string",
          "name": "_kryptoBird",
          "type": "string"
        }
      ],
      "name": "mint",
      "outputs": [],
      "stateMutability": "nonpayable",
      "type": "function"
    }
  ],
  "bytecode": "0x608060405234801561001057600080fd5b50604080518082018252600a81526912dc9e5c1d1bd89a5c9960b21b60208083019182528351808501909452600384526225a92160e91b908401528151919291839183916100609160069161007e565b50805161007490600790602084019061007e565b5050505050610151565b82805461008a90610117565b90600052602060002090601f0160209004810192826100ac57600085556100f2565b82601f106100c557805160ff19168380011785556100f2565b828001600101855582156100f2579182015b828111156100f25782518255916020019190600101906100d7565b506100fe929150610102565b5090565b5b808211156100fe5760008155600101610103565b600181811c9082168061012b57607f821691505b60208210810361014b57634e487b7160e01b600052602260045260246000fd5b50919050565b610939806101606000396000f3fe608060405234801561001057600080fd5b506004361061007d5760003560e01c806370a082311161005b57806370a08231146100dd57806393ab6e56146100f057806395d89b4114610103578063d85d3d271461010b57600080fd5b806306fdde031461008257806318160ddd146100a05780636352211e146100b2575b600080fd5b61008a610120565b6040516100979190610724565b60405180910390f35b6002545b604051908152602001610097565b6100c56100c0366004610757565b6101b2565b6040516001600160a01b039091168152602001610097565b6100a46100eb366004610770565b610235565b61008a6100fe366004610757565b6102b4565b61008a610360565b61011e6101193660046107b6565b61036f565b005b60606006805461012f90610867565b80601f016020809104026020016040519081016040528092919081815260200182805461015b90610867565b80156101a85780601f1061017d576101008083540402835291602001916101a8565b820191906000526020600020905b81548152906001019060200180831161018b57829003601f168201915b5050505050905090565b6000818152602081905260408120546001600160a01b03168061022f5760405162461bcd60e51b815260206004820152602a60248201527f4552433732313a206f776e657220717565727920666f72206e6f6e2d657869736044820152693a32b73a103a37b5b2b760b11b60648201526084015b60405180910390fd5b92915050565b60006001600160a01b0382166102985760405162461bcd60e51b815260206004820152602260248201527f4552433732313a2062616c616e63654f66206f776e657220697320696e76616c6044820152611a5960f21b6064820152608401610226565b506001600160a01b031660009081526001602052604090205490565b600881815481106102c457600080fd5b9060005260206000200160009150905080546102df90610867565b80601f016020809104026020016040519081016040528092919081815260200182805461030b90610867565b80156103585780601f1061032d57610100808354040283529160200191610358565b820191906000526020600020905b81548152906001019060200180831161033b57829003601f168201915b505050505081565b60606007805461012f90610867565b60098160405161037f91906108a1565b9081526040519081900360200190205460ff16156103ed5760405162461bcd60e51b815260206004820152602560248201527f4b727970746f426972643a206b727970746f4269726420616c72656164792065604482015264786973747360d81b6064820152608401610226565b600880546001810182556000919091528151610430917ff3f7a9fe364faab93b216da50a3214154f22a0a2b415b23a84c8169e8b636ee30190602084019061065b565b50600854600090610443906001906108d3565b905061044f3382610485565b600160098360405161046191906108a1565b908152604051908190036020019020805491151560ff199092169190911790555050565b61048f8282610514565b6104d781600280546000838152600360205260408120829055600182018355919091527f405787fa12a823e0f2b7631cc41b3ba8828b3321ca811111fa75cd3aa3bb5ace0155565b6001600160a01b03919091166000908152600460209081526040808320805460018101825581855283852001859055549383526005909152902055565b6001600160a01b0382166105755760405162461bcd60e51b815260206004820152602260248201527f4552433732313a206d696e7420746f206164647265737320697320696e76616c6044820152611a5960f21b6064820152608401610226565b6000818152602081905260409020546001600160a01b0316156105da5760405162461bcd60e51b815260206004820152601c60248201527f4552433732313a20746f6b656e20616c726561647920657869737473000000006044820152606401610226565b60008181526020818152604080832080546001600160a01b0319166001600160a01b03871690811790915583526001909152812080549161061a836108ea565b909155505060405181906001600160a01b038416906000907fddf252ad1be2c89b69c2b068fc378daa952ba7f163c4a11628f55a4df523b3ef908290a45050565b82805461066790610867565b90600052602060002090601f01602090048101928261068957600085556106cf565b82601f106106a257805160ff19168380011785556106cf565b828001600101855582156106cf579182015b828111156106cf5782518255916020019190600101906106b4565b506106db9291506106df565b5090565b5b808211156106db57600081556001016106e0565b60005b8381101561070f5781810151838201526020016106f7565b8381111561071e576000848401525b50505050565b60208152600082518060208401526107438160408501602087016106f4565b601f01601f19169190910160400192915050565b60006020828403121561076957600080fd5b5035919050565b60006020828403121561078257600080fd5b81356001600160a01b038116811461079957600080fd5b9392505050565b634e487b7160e01b600052604160045260246000fd5b6000602082840312156107c857600080fd5b813567ffffffffffffffff808211156107e057600080fd5b818401915084601f8301126107f457600080fd5b813581811115610806576108066107a0565b604051601f8201601f19908116603f0116810190838211818310171561082e5761082e6107a0565b8160405282815287602084870101111561084757600080fd5b826020860160208301376000928101602001929092525095945050505050565b600181811c9082168061087b57607f821691505b60208210810361089b57634e487b7160e01b600052602260045260246000fd5b50919050565b600082516108b38184602087016106f4565b9190910192915050565b634e487b7160e01b600052601160045260246000fd5b6000828210156108e5576108e56108bd565b500390565b6000600182016108fc576108fc6108bd565b506001019056fea2646970667358221220ba7c83f780a23a703e3f215f976571a9cb167377420abe9190f6a9d26d4794a864736f6c634300080e0033",
  "immutableReferences": {},
  "source": "// SPDX-License-Identifier: MIT\r\npragma solidity ^0.8.0;\r\n\r\nimport \"./ERC721Connector.sol\";\r\n\r\ncontract KryptoBird is ERC721Connector {\r\n  // array to store our nfts\r\n  string[] public kryptoBirdz;\r\n \r\n  mapping(string => bool) _kryptoBirdzExists;\r\n\r\n  function mint(string memory _kryptoBird) public {\r\n    require(_kryptoBirdzExists[_kryptoBird] == false, \"KryptoBird: kryptoBird already exists\");\r\n\r\n    // this is deprecated - uint _id = KryptoBirdz.push(_kryptoBird);\r\n    // .push no longer retruns the length but a ref to added element\r\n\r\n    kryptoBirdz.push(_kryptoBird);\r\n    uint256 _id = kryptoBirdz.length - 1;\r\n    _mint(msg.sender, _id);\r\n\r\n    _kryptoBirdzExists[_kryptoBird] = true;\r\n  }\r\n\r\n  constructor() ERC721Connector('Kryptobird', 'KRB') {\r\n\r\n  }\r\n}",
  "sourcePath": "C:\\Users\\pc\\Desktop\\test\\nfts\\contracts\\Kryptobird.sol",
  "compiler": {
    "name": "solc",
    "version": "0.8.14+commit.80d49f37.Emscripten.clang"
  },
  "schemaVersion": "3.4.7",
  "updatedAt": "2022-05-31T10:55:12.223Z",
  "devdoc": {
    "kind": "dev",
    "methods": {
      "balanceOf(address)": {
        "details": "NFTs assigned to the zero address are considered invalid, and this  function throws for queries about the zero address.",
        "params": {
          "_owner": "An address for whom to query the balance"
        },
        "returns": {
          "_0": "The number of NFTs owned by `_owner`, possibly zero"
        }
      },
      "ownerOf(uint256)": {
        "details": "NFTs assigned to zero address are considered invalid, and queries  about them do throw.",
        "params": {
          "_tokenId": "The identifier for an NFT"
        },
        "returns": {
          "_0": "The address of the owner of the NFT"
        }
      },
      "totalSupply()": {
        "returns": {
          "_0": "A count of valid NFTs tracked by this contract, where each one of  them has an assigned and queryable owner not equal to the zero address"
        }
      }
    },
    "version": 1
  },
  "userdoc": {
    "kind": "user",
    "methods": {
      "balanceOf(address)": {
        "notice": "Count all NFTs assigned to an owner"
      },
      "ownerOf(uint256)": {
        "notice": "Find the owner of an NFT"
      },
      "totalSupply()": {
        "notice": "Count NFTs tracked by this contract"
      }
    },
    "version": 1
  }
}