{
  "contractName": "KryptoBird",
  "abi": [
    {
      "inputs": [],
      "stateMutability": "nonpayable",
      "type": "constructor"
    },
    {
      "anonymous": false,
      "inputs": [
        {
          "indexed": true,
          "internalType": "address",
          "name": "from",
          "type": "address"
        },
        {
          "indexed": true,
          "internalType": "address",
          "name": "to",
          "type": "address"
        },
        {
          "indexed": true,
          "internalType": "uint256",
          "name": "tokenId",
          "type": "uint256"
        }
      ],
      "name": "Transfer",
      "type": "event"
    },
    {
      "inputs": [
        {
          "internalType": "address",
          "name": "_owner",
          "type": "address"
        }
      ],
      "name": "balanceOf",
      "outputs": [
        {
          "internalType": "uint256",
          "name": "",
          "type": "uint256"
        }
      ],
      "stateMutability": "view",
      "type": "function",
      "constant": true
    },
    {
      "inputs": [
        {
          "internalType": "uint256",
          "name": "",
          "type": "uint256"
        }
      ],
      "name": "kryptoBirdz",
      "outputs": [
        {
          "internalType": "string",
          "name": "",
          "type": "string"
        }
      ],
      "stateMutability": "view",
      "type": "function",
      "constant": true
    },
    {
      "inputs": [],
      "name": "name",
      "outputs": [
        {
          "internalType": "string",
          "name": "",
          "type": "string"
        }
      ],
      "stateMutability": "view",
      "type": "function",
      "constant": true
    },
    {
      "inputs": [
        {
          "internalType": "uint256",
          "name": "_tokenId",
          "type": "uint256"
        }
      ],
      "name": "ownerOf",
      "outputs": [
        {
          "internalType": "address",
          "name": "",
          "type": "address"
        }
      ],
      "stateMutability": "view",
      "type": "function",
      "constant": true
    },
    {
      "inputs": [],
      "name": "symbol",
      "outputs": [
        {
          "internalType": "string",
          "name": "",
          "type": "string"
        }
      ],
      "stateMutability": "view",
      "type": "function",
      "constant": true
    },
    {
      "inputs": [
        {
          "internalType": "uint256",
          "name": "index",
          "type": "uint256"
        }
      ],
      "name": "tokenByIndex",
      "outputs": [
        {
          "internalType": "uint256",
          "name": "",
          "type": "uint256"
        }
      ],
      "stateMutability": "view",
      "type": "function",
      "constant": true
    },
    {
      "inputs": [
        {
          "internalType": "address",
          "name": "owner",
          "type": "address"
        },
        {
          "internalType": "uint256",
          "name": "index",
          "type": "uint256"
        }
      ],
      "name": "tokenOfOwnerByIndex",
      "outputs": [
        {
          "internalType": "uint256",
          "name": "",
          "type": "uint256"
        }
      ],
      "stateMutability": "view",
      "type": "function",
      "constant": true
    },
    {
      "inputs": [],
      "name": "totalSupply",
      "outputs": [
        {
          "internalType": "uint256",
          "name": "",
          "type": "uint256"
        }
      ],
      "stateMutability": "view",
      "type": "function",
      "constant": true
    },
    {
      "inputs": [
        {
          "internalType": "string",
          "name": "_kryptoBird",
          "type": "string"
        }
      ],
      "name": "mint",
      "outputs": [],
      "stateMutability": "nonpayable",
      "type": "function"
    }
  ],
  "bytecode": "0x608060405234801561001057600080fd5b50604080518082018252600a81526912dc9e5c1d1bd89a5c9960b21b60208083019182528351808501909452600384526225a92160e91b908401528151919291839183916100609160069161007e565b50805161007490600790602084019061007e565b5050505050610151565b82805461008a90610117565b90600052602060002090601f0160209004810192826100ac57600085556100f2565b82601f106100c557805160ff19168380011785556100f2565b828001600101855582156100f2579182015b828111156100f25782518255916020019190600101906100d7565b506100fe929150610102565b5090565b5b808211156100fe5760008155600101610103565b600181811c9082168061012b57607f821691505b60208210810361014b57634e487b7160e01b600052602260045260246000fd5b50919050565b610b6980620001616000396000f3fe608060405234801561001057600080fd5b50600436106100935760003560e01c80636352211e116100665780636352211e146100ee57806370a082311461011957806393ab6e561461012c57806395d89b411461013f578063d85d3d271461014757600080fd5b806306fdde031461009857806318160ddd146100b65780632f745c59146100c85780634f6ccce7146100db575b600080fd5b6100a061015c565b6040516100ad9190610906565b60405180910390f35b6002545b6040519081526020016100ad565b6100ba6100d6366004610955565b6101ee565b6100ba6100e936600461097f565b610302565b6101016100fc36600461097f565b610399565b6040516001600160a01b0390911681526020016100ad565b6100ba610127366004610998565b610417565b6100a061013a36600461097f565b610496565b6100a0610542565b61015a6101553660046109d0565b610551565b005b60606006805461016b90610a81565b80601f016020809104026020016040519081016040528092919081815260200182805461019790610a81565b80156101e45780601f106101b9576101008083540402835291602001916101e4565b820191906000526020600020905b8154815290600101906020018083116101c757829003601f168201915b5050505050905090565b60006001600160a01b0383166102565760405162461bcd60e51b815260206004820152602260248201527f455243373231456e756d657261626c653a206f776e657220697320696e76616c6044820152611a5960f21b60648201526084015b60405180910390fd5b61025f83610417565b82106102c55760405162461bcd60e51b815260206004820152602f60248201527f455243373231456e756d657261626c653a204f776e657220696e64657820697360448201526e206f7574206f6620626f756e64732160881b606482015260840161024d565b6001600160a01b03831660009081526004602052604090208054839081106102ef576102ef610abb565b9060005260206000200154905092915050565b600061030d60025490565b82106103745760405162461bcd60e51b815260206004820152603060248201527f455243373231456e756d657261626c653a20476c6f62616c20696e646578206960448201526f73206f7574206f6620626f756e64732160801b606482015260840161024d565b6002828154811061038757610387610abb565b90600052602060002001549050919050565b6000818152602081905260408120546001600160a01b0316806104115760405162461bcd60e51b815260206004820152602a60248201527f4552433732313a206f776e657220717565727920666f72206e6f6e2d657869736044820152693a32b73a103a37b5b2b760b11b606482015260840161024d565b92915050565b60006001600160a01b03821661047a5760405162461bcd60e51b815260206004820152602260248201527f4552433732313a2062616c616e63654f66206f776e657220697320696e76616c6044820152611a5960f21b606482015260840161024d565b506001600160a01b031660009081526001602052604090205490565b600881815481106104a657600080fd5b9060005260206000200160009150905080546104c190610a81565b80601f01602080910402602001604051908101604052809291908181526020018280546104ed90610a81565b801561053a5780601f1061050f5761010080835404028352916020019161053a565b820191906000526020600020905b81548152906001019060200180831161051d57829003601f168201915b505050505081565b60606007805461016b90610a81565b6009816040516105619190610ad1565b9081526040519081900360200190205460ff16156105cf5760405162461bcd60e51b815260206004820152602560248201527f4b727970746f426972643a206b727970746f4269726420616c72656164792065604482015264786973747360d81b606482015260840161024d565b600880546001810182556000919091528151610612917ff3f7a9fe364faab93b216da50a3214154f22a0a2b415b23a84c8169e8b636ee30190602084019061083d565b5060085460009061062590600190610b03565b90506106313382610667565b60016009836040516106439190610ad1565b908152604051908190036020019020805491151560ff199092169190911790555050565b61067182826106f6565b6106b981600280546000838152600360205260408120829055600182018355919091527f405787fa12a823e0f2b7631cc41b3ba8828b3321ca811111fa75cd3aa3bb5ace0155565b6001600160a01b03919091166000908152600460209081526040808320805460018101825581855283852001859055549383526005909152902055565b6001600160a01b0382166107575760405162461bcd60e51b815260206004820152602260248201527f4552433732313a206d696e7420746f206164647265737320697320696e76616c6044820152611a5960f21b606482015260840161024d565b6000818152602081905260409020546001600160a01b0316156107bc5760405162461bcd60e51b815260206004820152601c60248201527f4552433732313a20746f6b656e20616c72656164792065786973747300000000604482015260640161024d565b60008181526020818152604080832080546001600160a01b0319166001600160a01b0387169081179091558352600190915281208054916107fc83610b1a565b909155505060405181906001600160a01b038416906000907fddf252ad1be2c89b69c2b068fc378daa952ba7f163c4a11628f55a4df523b3ef908290a45050565b82805461084990610a81565b90600052602060002090601f01602090048101928261086b57600085556108b1565b82601f1061088457805160ff19168380011785556108b1565b828001600101855582156108b1579182015b828111156108b1578251825591602001919060010190610896565b506108bd9291506108c1565b5090565b5b808211156108bd57600081556001016108c2565b60005b838110156108f15781810151838201526020016108d9565b83811115610900576000848401525b50505050565b60208152600082518060208401526109258160408501602087016108d6565b601f01601f19169190910160400192915050565b80356001600160a01b038116811461095057600080fd5b919050565b6000806040838503121561096857600080fd5b61097183610939565b946020939093013593505050565b60006020828403121561099157600080fd5b5035919050565b6000602082840312156109aa57600080fd5b6109b382610939565b9392505050565b634e487b7160e01b600052604160045260246000fd5b6000602082840312156109e257600080fd5b813567ffffffffffffffff808211156109fa57600080fd5b818401915084601f830112610a0e57600080fd5b813581811115610a2057610a206109ba565b604051601f8201601f19908116603f01168101908382118183101715610a4857610a486109ba565b81604052828152876020848701011115610a6157600080fd5b826020860160208301376000928101602001929092525095945050505050565b600181811c90821680610a9557607f821691505b602082108103610ab557634e487b7160e01b600052602260045260246000fd5b50919050565b634e487b7160e01b600052603260045260246000fd5b60008251610ae38184602087016108d6565b9190910192915050565b634e487b7160e01b600052601160045260246000fd5b600082821015610b1557610b15610aed565b500390565b600060018201610b2c57610b2c610aed565b506001019056fea2646970667358221220b013949e3d9cc9f385f0eb5c589936e49477fd8d89c157169f79222ae201660d64736f6c634300080e0033",
  "immutableReferences": {},
  "source": "// SPDX-License-Identifier: MIT\r\npragma solidity ^0.8.0;\r\n\r\nimport \"./ERC721Connector.sol\";\r\n\r\ncontract KryptoBird is ERC721Connector {\r\n  // array to store our nfts\r\n  string[] public kryptoBirdz;\r\n \r\n  mapping(string => bool) _kryptoBirdzExists;\r\n\r\n  function mint(string memory _kryptoBird) public {\r\n    require(_kryptoBirdzExists[_kryptoBird] == false, \"KryptoBird: kryptoBird already exists\");\r\n\r\n    // this is deprecated - uint _id = KryptoBirdz.push(_kryptoBird);\r\n    // .push no longer retruns the length but a ref to added element\r\n\r\n    kryptoBirdz.push(_kryptoBird);\r\n    uint256 _id = kryptoBirdz.length - 1;\r\n    _mint(msg.sender, _id);\r\n\r\n    _kryptoBirdzExists[_kryptoBird] = true;\r\n  }\r\n\r\n  constructor() ERC721Connector('Kryptobird', 'KRB') {\r\n\r\n  }\r\n}",
  "sourcePath": "C:\\Users\\pc\\Desktop\\test\\nfts\\contracts\\Kryptobird.sol",
  "compiler": {
    "name": "solc",
    "version": "0.8.14+commit.80d49f37.Emscripten.clang"
  },
  "schemaVersion": "3.4.7",
  "updatedAt": "2022-05-31T11:36:04.693Z",
  "networkType": "ethereum",
  "devdoc": {
    "kind": "dev",
    "methods": {
      "balanceOf(address)": {
        "details": "NFTs assigned to the zero address are considered invalid, and this  function throws for queries about the zero address.",
        "params": {
          "_owner": "An address for whom to query the balance"
        },
        "returns": {
          "_0": "The number of NFTs owned by `_owner`, possibly zero"
        }
      },
      "ownerOf(uint256)": {
        "details": "NFTs assigned to zero address are considered invalid, and queries  about them do throw.",
        "params": {
          "_tokenId": "The identifier for an NFT"
        },
        "returns": {
          "_0": "The address of the owner of the NFT"
        }
      },
      "totalSupply()": {
        "returns": {
          "_0": "A count of valid NFTs tracked by this contract, where each one of  them has an assigned and queryable owner not equal to the zero address"
        }
      }
    },
    "version": 1
  },
  "userdoc": {
    "kind": "user",
    "methods": {
      "balanceOf(address)": {
        "notice": "Count all NFTs assigned to an owner"
      },
      "ownerOf(uint256)": {
        "notice": "Find the owner of an NFT"
      },
      "totalSupply()": {
        "notice": "Count NFTs tracked by this contract"
      }
    },
    "version": 1
  }
}