{
  "contractName": "KryptoBird",
  "abi": [
    {
      "inputs": [],
      "stateMutability": "nonpayable",
      "type": "constructor"
    },
    {
      "anonymous": false,
      "inputs": [
        {
          "indexed": true,
          "internalType": "address",
          "name": "from",
          "type": "address"
        },
        {
          "indexed": true,
          "internalType": "address",
          "name": "to",
          "type": "address"
        },
        {
          "indexed": true,
          "internalType": "uint256",
          "name": "tokenId",
          "type": "uint256"
        }
      ],
      "name": "Transfer",
      "type": "event"
    },
    {
      "inputs": [
        {
          "internalType": "address",
          "name": "_owner",
          "type": "address"
        }
      ],
      "name": "balanceOf",
      "outputs": [
        {
          "internalType": "uint256",
          "name": "",
          "type": "uint256"
        }
      ],
      "stateMutability": "view",
      "type": "function",
      "constant": true
    },
    {
      "inputs": [
        {
          "internalType": "uint256",
          "name": "",
          "type": "uint256"
        }
      ],
      "name": "kryptoBirdz",
      "outputs": [
        {
          "internalType": "string",
          "name": "",
          "type": "string"
        }
      ],
      "stateMutability": "view",
      "type": "function",
      "constant": true
    },
    {
      "inputs": [],
      "name": "name",
      "outputs": [
        {
          "internalType": "string",
          "name": "",
          "type": "string"
        }
      ],
      "stateMutability": "view",
      "type": "function",
      "constant": true
    },
    {
      "inputs": [
        {
          "internalType": "uint256",
          "name": "_tokenId",
          "type": "uint256"
        }
      ],
      "name": "ownerOf",
      "outputs": [
        {
          "internalType": "address",
          "name": "",
          "type": "address"
        }
      ],
      "stateMutability": "view",
      "type": "function",
      "constant": true
    },
    {
      "inputs": [],
      "name": "symbol",
      "outputs": [
        {
          "internalType": "string",
          "name": "",
          "type": "string"
        }
      ],
      "stateMutability": "view",
      "type": "function",
      "constant": true
    },
    {
      "inputs": [
        {
          "internalType": "string",
          "name": "_kryptoBird",
          "type": "string"
        }
      ],
      "name": "mint",
      "outputs": [],
      "stateMutability": "nonpayable",
      "type": "function"
    }
  ],
  "bytecode": "0x608060405234801561001057600080fd5b50604080518082018252600a81526912dc9e5c1d1bd89a5c9960b21b60208083019182528351808501909452600384526225a92160e91b908401528151919291839183916100609160009161007e565b50805161007490600190602084019061007e565b5050505050610151565b82805461008a90610117565b90600052602060002090601f0160209004810192826100ac57600085556100f2565b82601f106100c557805160ff19168380011785556100f2565b828001600101855582156100f2579182015b828111156100f25782518255916020019190600101906100d7565b506100fe929150610102565b5090565b5b808211156100fe5760008155600101610103565b600181811c9082168061012b57607f821691505b60208210810361014b57634e487b7160e01b600052602260045260246000fd5b50919050565b610885806101606000396000f3fe608060405234801561001057600080fd5b50600436106100625760003560e01c806306fdde03146100675780636352211e1461008557806370a08231146100b057806393ab6e56146100d157806395d89b41146100e4578063d85d3d27146100ec575b600080fd5b61006f610101565b60405161007c9190610670565b60405180910390f35b6100986100933660046106a3565b610193565b6040516001600160a01b03909116815260200161007c565b6100c36100be3660046106bc565b61020e565b60405190815260200161007c565b61006f6100df3660046106a3565b61028d565b61006f610339565b6100ff6100fa366004610702565b610348565b005b606060008054610110906107b3565b80601f016020809104026020016040519081016040528092919081815260200182805461013c906107b3565b80156101895780601f1061015e57610100808354040283529160200191610189565b820191906000526020600020905b81548152906001019060200180831161016c57829003601f168201915b5050505050905090565b6000818152600260205260408120546001600160a01b0316806102085760405162461bcd60e51b815260206004820152602260248201527f4552433732313a206f776e65724f6620746f6b656e496420697320696e76616c6044820152611a5960f21b60648201526084015b60405180910390fd5b92915050565b60006001600160a01b0382166102715760405162461bcd60e51b815260206004820152602260248201527f4552433732313a2062616c616e63654f66206f776e657220697320696e76616c6044820152611a5960f21b60648201526084016101ff565b506001600160a01b031660009081526003602052604090205490565b6004818154811061029d57600080fd5b9060005260206000200160009150905080546102b8906107b3565b80601f01602080910402602001604051908101604052809291908181526020018280546102e4906107b3565b80156103315780601f1061030657610100808354040283529160200191610331565b820191906000526020600020905b81548152906001019060200180831161031457829003601f168201915b505050505081565b606060018054610110906107b3565b60058160405161035891906107ed565b9081526040519081900360200190205460ff16156103c65760405162461bcd60e51b815260206004820152602560248201527f4b727970746f426972643a206b727970746f4269726420616c72656164792065604482015264786973747360d81b60648201526084016101ff565b600480546001810182556000919091528151610409917f8a35acfbc15ff81a39ae7d344fd709f28e8600b4aa8c65c6b64bfe7fe36bd19b019060208401906105a7565b5060045460009061041c9060019061081f565b9050610428338261045e565b600160058360405161043a91906107ed565b908152604051908190036020019020805491151560ff199092169190911790555050565b6001600160a01b0382166104bf5760405162461bcd60e51b815260206004820152602260248201527f4552433732313a206d696e7420746f206164647265737320697320696e76616c6044820152611a5960f21b60648201526084016101ff565b6000818152600260205260409020546001600160a01b0316156105245760405162461bcd60e51b815260206004820152601c60248201527f4552433732313a20746f6b656e20616c7265616479206578697374730000000060448201526064016101ff565b600081815260026020908152604080832080546001600160a01b0319166001600160a01b03871690811790915583526003909152812080549161056683610836565b909155505060405181906001600160a01b038416906000907fddf252ad1be2c89b69c2b068fc378daa952ba7f163c4a11628f55a4df523b3ef908290a45050565b8280546105b3906107b3565b90600052602060002090601f0160209004810192826105d5576000855561061b565b82601f106105ee57805160ff191683800117855561061b565b8280016001018555821561061b579182015b8281111561061b578251825591602001919060010190610600565b5061062792915061062b565b5090565b5b80821115610627576000815560010161062c565b60005b8381101561065b578181015183820152602001610643565b8381111561066a576000848401525b50505050565b602081526000825180602084015261068f816040850160208701610640565b601f01601f19169190910160400192915050565b6000602082840312156106b557600080fd5b5035919050565b6000602082840312156106ce57600080fd5b81356001600160a01b03811681146106e557600080fd5b9392505050565b634e487b7160e01b600052604160045260246000fd5b60006020828403121561071457600080fd5b813567ffffffffffffffff8082111561072c57600080fd5b818401915084601f83011261074057600080fd5b813581811115610752576107526106ec565b604051601f8201601f19908116603f0116810190838211818310171561077a5761077a6106ec565b8160405282815287602084870101111561079357600080fd5b826020860160208301376000928101602001929092525095945050505050565b600181811c908216806107c757607f821691505b6020821081036107e757634e487b7160e01b600052602260045260246000fd5b50919050565b600082516107ff818460208701610640565b9190910192915050565b634e487b7160e01b600052601160045260246000fd5b60008282101561083157610831610809565b500390565b60006001820161084857610848610809565b506001019056fea26469706673582212204656ba4765f27200f454fdffb5949d7e991ab8cddf68662d42883af7b8e60d9f64736f6c634300080e0033",
  "immutableReferences": {},
  "source": "// SPDX-License-Identifier: MIT\r\npragma solidity ^0.8.0;\r\n\r\nimport \"./ERC721Connector.sol\";\r\n\r\ncontract KryptoBird is ERC721Connector {\r\n  // array to store our nfts\r\n  string[] public kryptoBirdz;\r\n \r\n  mapping(string => bool) _kryptoBirdzExists;\r\n\r\n  function mint(string memory _kryptoBird) public {\r\n    require(_kryptoBirdzExists[_kryptoBird] == false, \"KryptoBird: kryptoBird already exists\");\r\n\r\n    // this is deprecated - uint _id = KryptoBirdz.push(_kryptoBird);\r\n    // .push no longer retruns the length but a ref to added element\r\n\r\n    kryptoBirdz.push(_kryptoBird);\r\n    uint256 _id = kryptoBirdz.length - 1;\r\n    _mint(msg.sender, _id);\r\n\r\n    _kryptoBirdzExists[_kryptoBird] = true;\r\n  }\r\n\r\n  constructor() ERC721Connector('Kryptobird', 'KRB') {\r\n\r\n  }\r\n}",
  "sourcePath": "C:\\Users\\pc\\Desktop\\test\\nfts\\contracts\\Kryptobird.sol",
  "compiler": {
    "name": "solc",
    "version": "0.8.14+commit.80d49f37.Emscripten.clang"
  },
  "schemaVersion": "3.4.7",
  "updatedAt": "2022-05-26T12:34:12.886Z",
  "networkType": "ethereum",
  "devdoc": {
    "kind": "dev",
    "methods": {
      "balanceOf(address)": {
        "details": "NFTs assigned to the zero address are considered invalid, and this  function throws for queries about the zero address.",
        "params": {
          "_owner": "An address for whom to query the balance"
        },
        "returns": {
          "_0": "The number of NFTs owned by `_owner`, possibly zero"
        }
      },
      "ownerOf(uint256)": {
        "details": "NFTs assigned to zero address are considered invalid, and queries  about them do throw.",
        "params": {
          "_tokenId": "The identifier for an NFT"
        },
        "returns": {
          "_0": "The address of the owner of the NFT"
        }
      }
    },
    "version": 1
  },
  "userdoc": {
    "kind": "user",
    "methods": {
      "balanceOf(address)": {
        "notice": "Count all NFTs assigned to an owner"
      },
      "ownerOf(uint256)": {
        "notice": "Find the owner of an NFT"
      }
    },
    "version": 1
  }
}