{
  "contractName": "KryptoBird",
  "abi": [
    {
      "inputs": [],
      "stateMutability": "nonpayable",
      "type": "constructor"
    },
    {
      "anonymous": false,
      "inputs": [
        {
          "indexed": true,
          "internalType": "address",
          "name": "from",
          "type": "address"
        },
        {
          "indexed": true,
          "internalType": "address",
          "name": "to",
          "type": "address"
        },
        {
          "indexed": true,
          "internalType": "uint256",
          "name": "tokenId",
          "type": "uint256"
        }
      ],
      "name": "Transfer",
      "type": "event"
    },
    {
      "inputs": [
        {
          "internalType": "address",
          "name": "_owner",
          "type": "address"
        }
      ],
      "name": "balanceOf",
      "outputs": [
        {
          "internalType": "uint256",
          "name": "",
          "type": "uint256"
        }
      ],
      "stateMutability": "view",
      "type": "function"
    },
    {
      "inputs": [
        {
          "internalType": "uint256",
          "name": "",
          "type": "uint256"
        }
      ],
      "name": "kryptoBirdz",
      "outputs": [
        {
          "internalType": "string",
          "name": "",
          "type": "string"
        }
      ],
      "stateMutability": "view",
      "type": "function"
    },
    {
      "inputs": [],
      "name": "name",
      "outputs": [
        {
          "internalType": "string",
          "name": "",
          "type": "string"
        }
      ],
      "stateMutability": "view",
      "type": "function"
    },
    {
      "inputs": [
        {
          "internalType": "uint256",
          "name": "_tokenId",
          "type": "uint256"
        }
      ],
      "name": "ownerOf",
      "outputs": [
        {
          "internalType": "address",
          "name": "",
          "type": "address"
        }
      ],
      "stateMutability": "view",
      "type": "function"
    },
    {
      "inputs": [],
      "name": "symbol",
      "outputs": [
        {
          "internalType": "string",
          "name": "",
          "type": "string"
        }
      ],
      "stateMutability": "view",
      "type": "function"
    },
    {
      "inputs": [
        {
          "internalType": "uint256",
          "name": "index",
          "type": "uint256"
        }
      ],
      "name": "tokenByIndex",
      "outputs": [
        {
          "internalType": "uint256",
          "name": "",
          "type": "uint256"
        }
      ],
      "stateMutability": "view",
      "type": "function"
    },
    {
      "inputs": [
        {
          "internalType": "address",
          "name": "owner",
          "type": "address"
        },
        {
          "internalType": "uint256",
          "name": "index",
          "type": "uint256"
        }
      ],
      "name": "tokenOfOwnerByIndex",
      "outputs": [
        {
          "internalType": "uint256",
          "name": "",
          "type": "uint256"
        }
      ],
      "stateMutability": "view",
      "type": "function"
    },
    {
      "inputs": [],
      "name": "totalSupply",
      "outputs": [
        {
          "internalType": "uint256",
          "name": "",
          "type": "uint256"
        }
      ],
      "stateMutability": "view",
      "type": "function"
    },
    {
      "inputs": [
        {
          "internalType": "address",
          "name": "_from",
          "type": "address"
        },
        {
          "internalType": "address",
          "name": "_to",
          "type": "address"
        },
        {
          "internalType": "uint256",
          "name": "_tokenId",
          "type": "uint256"
        }
      ],
      "name": "transferFrom",
      "outputs": [],
      "stateMutability": "nonpayable",
      "type": "function"
    },
    {
      "inputs": [
        {
          "internalType": "string",
          "name": "_kryptoBird",
          "type": "string"
        }
      ],
      "name": "mint",
      "outputs": [],
      "stateMutability": "nonpayable",
      "type": "function"
    }
  ],
  "bytecode": "0x60806040523480156200001157600080fd5b50604080518082018252600a81526912dc9e5c1d1bd89a5c9960b21b60208083019182528351808501909452600384526225a92160e91b90840152815191929183918391620000639160079162000084565b5080516200007990600890602084019062000084565b505050505062000166565b82805462000092906200012a565b90600052602060002090601f016020900481019282620000b6576000855562000101565b82601f10620000d157805160ff191683800117855562000101565b8280016001018555821562000101579182015b8281111562000101578251825591602001919060010190620000e4565b506200010f92915062000113565b5090565b5b808211156200010f576000815560010162000114565b600181811c908216806200013f57607f821691505b6020821081036200016057634e487b7160e01b600052602260045260246000fd5b50919050565b610da080620001766000396000f3fe608060405234801561001057600080fd5b506004361061009e5760003560e01c80636352211e116100665780636352211e1461010e57806370a082311461013957806393ab6e561461014c57806395d89b411461015f578063d85d3d271461016757600080fd5b806306fdde03146100a357806318160ddd146100c157806323b872dd146100d35780632f745c59146100e85780634f6ccce7146100fb575b600080fd5b6100ab61017a565b6040516100b89190610aea565b60405180910390f35b6003545b6040519081526020016100b8565b6100e66100e1366004610b39565b61020c565b005b6100c56100f6366004610b75565b61021c565b6100c5610109366004610b9f565b610330565b61012161011c366004610b9f565b6103c7565b6040516001600160a01b0390911681526020016100b8565b6100c5610147366004610bb8565b610445565b6100ab61015a366004610b9f565b6104c4565b6100ab610570565b6100e6610175366004610bf0565b61057f565b60606007805461018990610ca1565b80601f01602080910402602001604051908101604052809291908181526020018280546101b590610ca1565b80156102025780601f106101d757610100808354040283529160200191610202565b820191906000526020600020905b8154815290600101906020018083116101e557829003601f168201915b5050505050905090565b610217838383610695565b505050565b60006001600160a01b0383166102845760405162461bcd60e51b815260206004820152602260248201527f455243373231456e756d657261626c653a206f776e657220697320696e76616c6044820152611a5960f21b60648201526084015b60405180910390fd5b61028d83610445565b82106102f35760405162461bcd60e51b815260206004820152602f60248201527f455243373231456e756d657261626c653a204f776e657220696e64657820697360448201526e206f7574206f6620626f756e64732160881b606482015260840161027b565b6001600160a01b038316600090815260056020526040902080548390811061031d5761031d610cdb565b9060005260206000200154905092915050565b600061033b60035490565b82106103a25760405162461bcd60e51b815260206004820152603060248201527f455243373231456e756d657261626c653a20476c6f62616c20696e646578206960448201526f73206f7574206f6620626f756e64732160801b606482015260840161027b565b600382815481106103b5576103b5610cdb565b90600052602060002001549050919050565b6000818152602081905260408120546001600160a01b03168061043f5760405162461bcd60e51b815260206004820152602a60248201527f4552433732313a206f776e657220717565727920666f72206e6f6e2d657869736044820152693a32b73a103a37b5b2b760b11b606482015260840161027b565b92915050565b60006001600160a01b0382166104a85760405162461bcd60e51b815260206004820152602260248201527f4552433732313a2062616c616e63654f66206f776e657220697320696e76616c6044820152611a5960f21b606482015260840161027b565b506001600160a01b031660009081526001602052604090205490565b600981815481106104d457600080fd5b9060005260206000200160009150905080546104ef90610ca1565b80601f016020809104026020016040519081016040528092919081815260200182805461051b90610ca1565b80156105685780601f1061053d57610100808354040283529160200191610568565b820191906000526020600020905b81548152906001019060200180831161054b57829003601f168201915b505050505081565b60606008805461018990610ca1565b600a8160405161058f9190610cf1565b9081526040519081900360200190205460ff16156105fd5760405162461bcd60e51b815260206004820152602560248201527f4b727970746f426972643a206b727970746f4269726420616c72656164792065604482015264786973747360d81b606482015260840161027b565b600980546001810182556000919091528151610640917f6e1540171b6c0c960b71a7020d9f60077f6af931a8bbf590da0223dacf75c7af01906020840190610a21565b5060095460009061065390600190610d23565b905061065f338261084b565b6001600a836040516106719190610cf1565b908152604051908190036020019020805491151560ff199092169190911790555050565b6001600160a01b0382166106fa5760405162461bcd60e51b815260206004820152602660248201527f4552433732313a207472616e7366657220746f206164647265737320697320696044820152651b9d985b1a5960d21b606482015260840161027b565b826001600160a01b031661070d826103c7565b6001600160a01b0316146107815760405162461bcd60e51b815260206004820152603560248201527f4552433732313a2073656e646572206973206e6f7420746865206f776e6572206044820152741bd9881d1a194819da5d995b881d1bdad95b881251605a1b606482015260840161027b565b60008181526020818152604080832080546001600160a01b0319166001600160a01b038781169190911790915586168352600190915281208054916107c583610d3a565b90915550506001600160a01b03821660009081526001602052604081208054916107ee83610d51565b909155505060008181526002602052604080822080546001600160a01b03191690555182916001600160a01b0385811692908716917fddf252ad1be2c89b69c2b068fc378daa952ba7f163c4a11628f55a4df523b3ef91a4505050565b61085582826108da565b61089d81600380546000838152600460205260408120829055600182018355919091527fc2575a0e9e593c00f959f8c92f12db2869c3395a3b0502d05e2516446f71f85b0155565b6001600160a01b03919091166000908152600560209081526040808320805460018101825581855283852001859055549383526006909152902055565b6001600160a01b03821661093b5760405162461bcd60e51b815260206004820152602260248201527f4552433732313a206d696e7420746f206164647265737320697320696e76616c6044820152611a5960f21b606482015260840161027b565b6000818152602081905260409020546001600160a01b0316156109a05760405162461bcd60e51b815260206004820152601c60248201527f4552433732313a20746f6b656e20616c72656164792065786973747300000000604482015260640161027b565b60008181526020818152604080832080546001600160a01b0319166001600160a01b0387169081179091558352600190915281208054916109e083610d51565b909155505060405181906001600160a01b038416906000907fddf252ad1be2c89b69c2b068fc378daa952ba7f163c4a11628f55a4df523b3ef908290a45050565b828054610a2d90610ca1565b90600052602060002090601f016020900481019282610a4f5760008555610a95565b82601f10610a6857805160ff1916838001178555610a95565b82800160010185558215610a95579182015b82811115610a95578251825591602001919060010190610a7a565b50610aa1929150610aa5565b5090565b5b80821115610aa15760008155600101610aa6565b60005b83811015610ad5578181015183820152602001610abd565b83811115610ae4576000848401525b50505050565b6020815260008251806020840152610b09816040850160208701610aba565b601f01601f19169190910160400192915050565b80356001600160a01b0381168114610b3457600080fd5b919050565b600080600060608486031215610b4e57600080fd5b610b5784610b1d565b9250610b6560208501610b1d565b9150604084013590509250925092565b60008060408385031215610b8857600080fd5b610b9183610b1d565b946020939093013593505050565b600060208284031215610bb157600080fd5b5035919050565b600060208284031215610bca57600080fd5b610bd382610b1d565b9392505050565b634e487b7160e01b600052604160045260246000fd5b600060208284031215610c0257600080fd5b813567ffffffffffffffff80821115610c1a57600080fd5b818401915084601f830112610c2e57600080fd5b813581811115610c4057610c40610bda565b604051601f8201601f19908116603f01168101908382118183101715610c6857610c68610bda565b81604052828152876020848701011115610c8157600080fd5b826020860160208301376000928101602001929092525095945050505050565b600181811c90821680610cb557607f821691505b602082108103610cd557634e487b7160e01b600052602260045260246000fd5b50919050565b634e487b7160e01b600052603260045260246000fd5b60008251610d03818460208701610aba565b9190910192915050565b634e487b7160e01b600052601160045260246000fd5b600082821015610d3557610d35610d0d565b500390565b600081610d4957610d49610d0d565b506000190190565b600060018201610d6357610d63610d0d565b506001019056fea2646970667358221220a5b5def36fc9a2118b957db73cefcfa0637ffad1e5e8285a3c9ba376fb84ef3c64736f6c634300080e0033",
  "immutableReferences": {},
  "source": "// SPDX-License-Identifier: MIT\r\npragma solidity ^0.8.0;\r\n\r\nimport \"./ERC721Connector.sol\";\r\n\r\ncontract KryptoBird is ERC721Connector {\r\n  // array to store our nfts\r\n  string[] public kryptoBirdz;\r\n \r\n  mapping(string => bool) _kryptoBirdzExists;\r\n\r\n  function mint(string memory _kryptoBird) public {\r\n    require(_kryptoBirdzExists[_kryptoBird] == false, \"KryptoBird: kryptoBird already exists\");\r\n\r\n    // this is deprecated - uint _id = KryptoBirdz.push(_kryptoBird);\r\n    // .push no longer retruns the length but a ref to added element\r\n\r\n    kryptoBirdz.push(_kryptoBird);\r\n    uint256 _id = kryptoBirdz.length - 1;\r\n    _mint(msg.sender, _id);\r\n\r\n    _kryptoBirdzExists[_kryptoBird] = true;\r\n  }\r\n\r\n  constructor() ERC721Connector('Kryptobird', 'KRB') {\r\n\r\n  }\r\n}",
  "sourcePath": "C:\\Users\\pc\\Desktop\\test\\nfts\\contracts\\Kryptobird.sol",
  "compiler": {
    "name": "solc",
    "version": "0.8.14+commit.80d49f37.Emscripten.clang"
  },
  "schemaVersion": "3.4.7",
  "updatedAt": "2022-05-31T14:31:45.940Z",
  "devdoc": {
    "kind": "dev",
    "methods": {
      "balanceOf(address)": {
        "details": "NFTs assigned to the zero address are considered invalid, and this  function throws for queries about the zero address.",
        "params": {
          "_owner": "An address for whom to query the balance"
        },
        "returns": {
          "_0": "The number of NFTs owned by `_owner`, possibly zero"
        }
      },
      "ownerOf(uint256)": {
        "details": "NFTs assigned to zero address are considered invalid, and queries  about them do throw.",
        "params": {
          "_tokenId": "The identifier for an NFT"
        },
        "returns": {
          "_0": "The address of the owner of the NFT"
        }
      },
      "totalSupply()": {
        "returns": {
          "_0": "A count of valid NFTs tracked by this contract, where each one of  them has an assigned and queryable owner not equal to the zero address"
        }
      }
    },
    "version": 1
  },
  "userdoc": {
    "kind": "user",
    "methods": {
      "balanceOf(address)": {
        "notice": "Count all NFTs assigned to an owner"
      },
      "ownerOf(uint256)": {
        "notice": "Find the owner of an NFT"
      },
      "totalSupply()": {
        "notice": "Count NFTs tracked by this contract"
      }
    },
    "version": 1
  }
}